{
  "address": "0xD964c74E96cEe447d43b82a8dE08acFfCfa7089c",
  "abi": [
    {
      "inputs": [],
      "stateMutability": "nonpayable",
      "type": "constructor"
    },
    {
      "anonymous": false,
      "inputs": [
        {
          "indexed": true,
          "internalType": "address",
          "name": "account",
          "type": "address"
        },
        {
          "indexed": true,
          "internalType": "address",
          "name": "operator",
          "type": "address"
        },
        {
          "indexed": false,
          "internalType": "bool",
          "name": "approved",
          "type": "bool"
        }
      ],
      "name": "ApprovalForAll",
      "type": "event"
    },
    {
      "anonymous": false,
      "inputs": [
        {
          "indexed": true,
          "internalType": "address",
          "name": "operator",
          "type": "address"
        },
        {
          "indexed": true,
          "internalType": "address",
          "name": "from",
          "type": "address"
        },
        {
          "indexed": true,
          "internalType": "address",
          "name": "to",
          "type": "address"
        },
        {
          "indexed": false,
          "internalType": "uint256[]",
          "name": "ids",
          "type": "uint256[]"
        },
        {
          "indexed": false,
          "internalType": "uint256[]",
          "name": "values",
          "type": "uint256[]"
        }
      ],
      "name": "TransferBatch",
      "type": "event"
    },
    {
      "anonymous": false,
      "inputs": [
        {
          "indexed": true,
          "internalType": "address",
          "name": "operator",
          "type": "address"
        },
        {
          "indexed": true,
          "internalType": "address",
          "name": "from",
          "type": "address"
        },
        {
          "indexed": true,
          "internalType": "address",
          "name": "to",
          "type": "address"
        },
        {
          "indexed": false,
          "internalType": "uint256",
          "name": "id",
          "type": "uint256"
        },
        {
          "indexed": false,
          "internalType": "uint256",
          "name": "value",
          "type": "uint256"
        }
      ],
      "name": "TransferSingle",
      "type": "event"
    },
    {
      "anonymous": false,
      "inputs": [
        {
          "indexed": false,
          "internalType": "string",
          "name": "value",
          "type": "string"
        },
        {
          "indexed": true,
          "internalType": "uint256",
          "name": "id",
          "type": "uint256"
        }
      ],
      "name": "URI",
      "type": "event"
    },
    {
      "inputs": [],
      "name": "REGISTRY",
      "outputs": [
        {
          "internalType": "address",
          "name": "",
          "type": "address"
        }
      ],
      "stateMutability": "view",
      "type": "function"
    },
    {
      "inputs": [
        {
          "internalType": "address",
          "name": "account",
          "type": "address"
        },
        {
          "internalType": "uint256",
          "name": "id",
          "type": "uint256"
        }
      ],
      "name": "balanceOf",
      "outputs": [
        {
          "internalType": "uint256",
          "name": "",
          "type": "uint256"
        }
      ],
      "stateMutability": "view",
      "type": "function"
    },
    {
      "inputs": [
        {
          "internalType": "address[]",
          "name": "accounts",
          "type": "address[]"
        },
        {
          "internalType": "uint256[]",
          "name": "ids",
          "type": "uint256[]"
        }
      ],
      "name": "balanceOfBatch",
      "outputs": [
        {
          "internalType": "uint256[]",
          "name": "",
          "type": "uint256[]"
        }
      ],
      "stateMutability": "view",
      "type": "function"
    },
    {
      "inputs": [
        {
          "internalType": "address",
          "name": "_creator",
          "type": "address"
        },
        {
          "internalType": "string",
          "name": "_uri",
          "type": "string"
        }
      ],
      "name": "create",
      "outputs": [
        {
          "internalType": "uint256",
          "name": "",
          "type": "uint256"
        }
      ],
      "stateMutability": "nonpayable",
      "type": "function"
    },
    {
      "inputs": [
        {
          "internalType": "uint256",
          "name": "",
          "type": "uint256"
        }
      ],
      "name": "creators",
      "outputs": [
        {
          "internalType": "address",
          "name": "",
          "type": "address"
        }
      ],
      "stateMutability": "view",
      "type": "function"
    },
    {
      "inputs": [
        {
          "internalType": "uint256",
          "name": "",
          "type": "uint256"
        }
      ],
      "name": "customUri",
      "outputs": [
        {
          "internalType": "string",
          "name": "",
          "type": "string"
        }
      ],
      "stateMutability": "view",
      "type": "function"
    },
    {
      "inputs": [
        {
          "internalType": "uint256",
          "name": "_id",
          "type": "uint256"
        }
      ],
      "name": "exists",
      "outputs": [
        {
          "internalType": "bool",
          "name": "",
          "type": "bool"
        }
      ],
      "stateMutability": "view",
      "type": "function"
    },
    {
      "inputs": [],
      "name": "index",
      "outputs": [
        {
          "internalType": "uint256",
          "name": "",
          "type": "uint256"
        }
      ],
      "stateMutability": "view",
      "type": "function"
    },
    {
      "inputs": [
        {
          "internalType": "address",
          "name": "account",
          "type": "address"
        },
        {
          "internalType": "address",
          "name": "operator",
          "type": "address"
        }
      ],
      "name": "isApprovedForAll",
      "outputs": [
        {
          "internalType": "bool",
          "name": "",
          "type": "bool"
        }
      ],
      "stateMutability": "view",
      "type": "function"
    },
    {
      "inputs": [
        {
          "internalType": "address",
          "name": "_to",
          "type": "address"
        },
        {
          "internalType": "uint256",
          "name": "_id",
          "type": "uint256"
        },
        {
          "internalType": "bytes",
          "name": "_data",
          "type": "bytes"
        }
      ],
      "name": "mint",
      "outputs": [],
      "stateMutability": "payable",
      "type": "function"
    },
    {
      "inputs": [],
      "name": "name",
      "outputs": [
        {
          "internalType": "string",
          "name": "",
          "type": "string"
        }
      ],
      "stateMutability": "view",
      "type": "function"
    },
    {
      "inputs": [
        {
          "internalType": "address",
          "name": "from",
          "type": "address"
        },
        {
          "internalType": "address",
          "name": "to",
          "type": "address"
        },
        {
          "internalType": "uint256[]",
          "name": "ids",
          "type": "uint256[]"
        },
        {
          "internalType": "uint256[]",
          "name": "amounts",
          "type": "uint256[]"
        },
        {
          "internalType": "bytes",
          "name": "data",
          "type": "bytes"
        }
      ],
      "name": "safeBatchTransferFrom",
      "outputs": [],
      "stateMutability": "nonpayable",
      "type": "function"
    },
    {
      "inputs": [
        {
          "internalType": "address",
          "name": "from",
          "type": "address"
        },
        {
          "internalType": "address",
          "name": "to",
          "type": "address"
        },
        {
          "internalType": "uint256",
          "name": "id",
          "type": "uint256"
        },
        {
          "internalType": "uint256",
          "name": "amount",
          "type": "uint256"
        },
        {
          "internalType": "bytes",
          "name": "data",
          "type": "bytes"
        }
      ],
      "name": "safeTransferFrom",
      "outputs": [],
      "stateMutability": "nonpayable",
      "type": "function"
    },
    {
      "inputs": [
        {
          "internalType": "address",
          "name": "operator",
          "type": "address"
        },
        {
          "internalType": "bool",
          "name": "approved",
          "type": "bool"
        }
      ],
      "name": "setApprovalForAll",
      "outputs": [],
      "stateMutability": "nonpayable",
      "type": "function"
    },
    {
      "inputs": [
        {
          "internalType": "address",
          "name": "registry",
          "type": "address"
        }
      ],
      "name": "setRegistry",
      "outputs": [],
      "stateMutability": "nonpayable",
      "type": "function"
    },
    {
      "inputs": [
        {
          "internalType": "bytes4",
          "name": "interfaceId",
          "type": "bytes4"
        }
      ],
      "name": "supportsInterface",
      "outputs": [
        {
          "internalType": "bool",
          "name": "",
          "type": "bool"
        }
      ],
      "stateMutability": "view",
      "type": "function"
    },
    {
      "inputs": [],
      "name": "symbol",
      "outputs": [
        {
          "internalType": "string",
          "name": "",
          "type": "string"
        }
      ],
      "stateMutability": "view",
      "type": "function"
    },
    {
      "inputs": [],
      "name": "tokenIndex",
      "outputs": [
        {
          "internalType": "uint256",
          "name": "",
          "type": "uint256"
        }
      ],
      "stateMutability": "view",
      "type": "function"
    },
    {
      "inputs": [
        {
          "internalType": "uint256",
          "name": "",
          "type": "uint256"
        }
      ],
      "name": "tokenSupply",
      "outputs": [
        {
          "internalType": "uint256",
          "name": "",
          "type": "uint256"
        }
      ],
      "stateMutability": "view",
      "type": "function"
    },
    {
      "inputs": [
        {
          "internalType": "uint256",
          "name": "_id",
          "type": "uint256"
        }
      ],
      "name": "totalSupply",
      "outputs": [
        {
          "internalType": "uint256",
          "name": "",
          "type": "uint256"
        }
      ],
      "stateMutability": "view",
      "type": "function"
    },
    {
      "inputs": [
        {
          "internalType": "uint256",
          "name": "_id",
          "type": "uint256"
        },
        {
          "internalType": "string",
          "name": "_uri",
          "type": "string"
        }
      ],
      "name": "updateURI",
      "outputs": [],
      "stateMutability": "nonpayable",
      "type": "function"
    },
    {
      "inputs": [
        {
          "internalType": "uint256",
          "name": "_id",
          "type": "uint256"
        }
      ],
      "name": "uri",
      "outputs": [
        {
          "internalType": "string",
          "name": "",
          "type": "string"
        }
      ],
      "stateMutability": "view",
      "type": "function"
    }
  ],
  "transactionHash": "0x1a467b6db1cd92c3c4926ee78dae8d2f1f44d0adb30d8587af5544b85b9b2ae9",
  "args": [],
  "numDeployments": 1,
  "solcInputHash": "875dad63ef68f25c04e3006c987bc4ad",
  "bytecode": "0x60806040523480156200001157600080fd5b506040805160208101909152600081526200002c8162000091565b5060408051808201909152600b81526a04461707053746f70506f560ac1b60208201526006906200005e908262000148565b5060408051808201909152600581526404453504f560dc1b60208201526007906200008a908262000148565b5062000214565b60026200009f828262000148565b5050565b634e487b7160e01b600052604160045260246000fd5b600181811c90821680620000ce57607f821691505b602082108103620000ef57634e487b7160e01b600052602260045260246000fd5b50919050565b601f8211156200014357600081815260208120601f850160051c810160208610156200011e5750805b601f850160051c820191505b818110156200013f578281556001016200012a565b5050505b505050565b81516001600160401b03811115620001645762000164620000a3565b6200017c81620001758454620000b9565b84620000f5565b602080601f831160018114620001b457600084156200019b5750858301515b600019600386901b1c1916600185901b1785556200013f565b600085815260208120601f198616915b82811015620001e557888601518255948401946001909101908401620001c4565b5085821015620002045787850151600019600388901b60f8161c191681555b5050505050600190811b01905550565b611d8b80620002246000396000f3fe6080604052600436106101345760003560e01c80638a28a5a2116100ab578063a91ee0dc1161006f578063a91ee0dc14610370578063bd85b03914610390578063cd53d08e146103bd578063d55f9273146103f3578063e985e9c514610408578063f242432a1461045157600080fd5b80638a28a5a2146102e857806394d008ef1461030857806395d89b411461031b578063a15ab08d14610330578063a22cb4651461035057600080fd5b80632693ebf2116100fd5780632693ebf2146102165780632986c0e5146102435780632eb2c2d61461025957806331d41c691461027b5780634e1273f41461029b5780634f558e79146102c857600080fd5b8062fdd58e1461013957806301ffc9a71461016c57806306433b1b1461019c57806306fdde03146101d45780630e89341c146101f6575b600080fd5b34801561014557600080fd5b50610159610154366004611329565b610471565b6040519081526020015b60405180910390f35b34801561017857600080fd5b5061018c61018736600461136c565b61050a565b6040519015158152602001610163565b3480156101a857600080fd5b506008546101bc906001600160a01b031681565b6040516001600160a01b039091168152602001610163565b3480156101e057600080fd5b506101e961055a565b60405161016391906113d6565b34801561020257600080fd5b506101e96102113660046113e9565b6105e8565b34801561022257600080fd5b506101596102313660046113e9565b60046020526000908152604090205481565b34801561024f57600080fd5b5061015960095481565b34801561026557600080fd5b5061027961027436600461154e565b6106ed565b005b34801561028757600080fd5b506102796102963660046115f8565b610739565b3480156102a757600080fd5b506102bb6102b636600461163f565b610780565b604051610163919061173b565b3480156102d457600080fd5b5061018c6102e33660046113e9565b6108aa565b3480156102f457600080fd5b506101e96103033660046113e9565b6108c9565b61027961031636600461174e565b6108e2565b34801561032757600080fd5b506101e96109fd565b34801561033c57600080fd5b5061015961034b3660046117a5565b610a0a565b34801561035c57600080fd5b5061027961036b3660046117dd565b610ad7565b34801561037c57600080fd5b5061027961038b366004611819565b610ae6565b34801561039c57600080fd5b506101596103ab3660046113e9565b60009081526004602052604090205490565b3480156103c957600080fd5b506101bc6103d83660046113e9565b6003602052600090815260409020546001600160a01b031681565b3480156103ff57600080fd5b50600954610159565b34801561041457600080fd5b5061018c610423366004611834565b6001600160a01b03918216600090815260016020908152604080832093909416825291909152205460ff1690565b34801561045d57600080fd5b5061027961046c366004611867565b610b6c565b60006001600160a01b0383166104e15760405162461bcd60e51b815260206004820152602a60248201527f455243313135353a2061646472657373207a65726f206973206e6f742061207660448201526930b634b21037bbb732b960b11b60648201526084015b60405180910390fd5b506000818152602081815260408083206001600160a01b03861684529091529020545b92915050565b60006001600160e01b03198216636cdb3d1360e11b148061053b57506001600160e01b031982166303a24d0760e21b145b8061050457506301ffc9a760e01b6001600160e01b0319831614610504565b60068054610567906118cc565b80601f0160208091040260200160405190810160405280929190818152602001828054610593906118cc565b80156105e05780601f106105b5576101008083540402835291602001916105e0565b820191906000526020600020905b8154815290600101906020018083116105c357829003601f168201915b505050505081565b6000818152600360205260409020546060906001600160a01b031661064f5760405162461bcd60e51b815260206004820152601f60248201527f4461707053746f70506f503a204e6f6e2d6578697374656e7420746f6b656e0060448201526064016104d8565b60008281526005602052604090208054610668906118cc565b80601f0160208091040260200160405190810160405280929190818152602001828054610694906118cc565b80156106e15780601f106106b6576101008083540402835291602001916106e1565b820191906000526020600020905b8154815290600101906020018083116106c457829003601f168201915b50505050509050919050565b6001600160a01b03851633148061070957506107098533610423565b6107255760405162461bcd60e51b81526004016104d890611906565b6107328585858585610bb1565b5050505050565b6008546001600160a01b031633146107635760405162461bcd60e51b81526004016104d890611955565b600082815260056020526040902061077b82826119d2565b505050565b606081518351146107e55760405162461bcd60e51b815260206004820152602960248201527f455243313135353a206163636f756e747320616e6420696473206c656e677468604482015268040dad2e6dac2e8c6d60bb1b60648201526084016104d8565b6000835167ffffffffffffffff81111561080157610801611402565b60405190808252806020026020018201604052801561082a578160200160208202803683370190505b50905060005b84518110156108a25761087585828151811061084e5761084e611a92565b602002602001015185838151811061086857610868611a92565b6020026020010151610471565b82828151811061088757610887611a92565b602090810291909101015261089b81611abe565b9050610830565b509392505050565b6000818152600360205260408120546001600160a01b03161515610504565b60056020526000908152604090208054610567906118cc565b6008546001600160a01b0316331461090c5760405162461bcd60e51b81526004016104d890611955565b6000828152600360205260409020546001600160a01b03166109705760405162461bcd60e51b815260206004820181905260248201527f4461707053746f70506f503a204e6f6e2d6578697374656e7420746f6b656e2160448201526064016104d8565b61097a8383610471565b156109c75760405162461bcd60e51b815260206004820152601c60248201527f4461707053746f70506f503a20416c7265616479206d696e746564210000000060448201526064016104d8565b6109d48383600184610d8e565b60008281526004602052604081208054600192906109f3908490611ad7565b9091555050505050565b60078054610567906118cc565b6008546000906001600160a01b03163314610a375760405162461bcd60e51b81526004016104d890611955565b600954600081815260036020526040902080546001600160a01b0319166001600160a01b038616179055825115610aba576000818152600560205260409020610a8084826119d2565b50807f6bb7ff708619ba0610cba295a58592e0451dee2622938c8755667688daf3529b84604051610ab191906113d6565b60405180910390a25b60098054906000610aca83611abe565b9091555090949350505050565b610ae2338383610ea2565b5050565b6008546001600160a01b031615610b4a5760405162461bcd60e51b815260206004820152602260248201527f4461707053746f70506f503a20526567697374727920416c7265616479205365604482015261742160f01b60648201526084016104d8565b600880546001600160a01b0319166001600160a01b0392909216919091179055565b6001600160a01b038516331480610b885750610b888533610423565b610ba45760405162461bcd60e51b81526004016104d890611906565b6107328585858585610f82565b8151835114610c135760405162461bcd60e51b815260206004820152602860248201527f455243313135353a2069647320616e6420616d6f756e7473206c656e677468206044820152670dad2e6dac2e8c6d60c31b60648201526084016104d8565b6001600160a01b038416610c395760405162461bcd60e51b81526004016104d890611aea565b3360005b8451811015610d20576000858281518110610c5a57610c5a611a92565b602002602001015190506000858381518110610c7857610c78611a92565b602090810291909101810151600084815280835260408082206001600160a01b038e168352909352919091205490915081811015610cc85760405162461bcd60e51b81526004016104d890611b2f565b6000838152602081815260408083206001600160a01b038e8116855292528083208585039055908b16825281208054849290610d05908490611ad7565b9250508190555050505080610d1990611abe565b9050610c3d565b50846001600160a01b0316866001600160a01b0316826001600160a01b03167f4a39dc06d4c0dbc64b70af90fd698a233a518aa5d07e595d983b8c0526c8f7fb8787604051610d70929190611b79565b60405180910390a4610d868187878787876110ac565b505050505050565b6001600160a01b038416610dee5760405162461bcd60e51b815260206004820152602160248201527f455243313135353a206d696e7420746f20746865207a65726f206164647265736044820152607360f81b60648201526084016104d8565b336000610dfa85611207565b90506000610e0785611207565b90506000868152602081815260408083206001600160a01b038b16845290915281208054879290610e39908490611ad7565b909155505060408051878152602081018790526001600160a01b03808a1692600092918716917fc3d58168c5ae7397731d063d5bbf3d657854427343f4c083240f7aacaa2d0f62910160405180910390a4610e9983600089898989611252565b50505050505050565b816001600160a01b0316836001600160a01b031603610f155760405162461bcd60e51b815260206004820152602960248201527f455243313135353a2073657474696e6720617070726f76616c20737461747573604482015268103337b91039b2b63360b91b60648201526084016104d8565b6001600160a01b03838116600081815260016020908152604080832094871680845294825291829020805460ff191686151590811790915591519182527f17307eab39ab6107e8899845ad3d59bd9653f200f220920489ca2b5937696c31910160405180910390a3505050565b6001600160a01b038416610fa85760405162461bcd60e51b81526004016104d890611aea565b336000610fb485611207565b90506000610fc185611207565b90506000868152602081815260408083206001600160a01b038c168452909152902054858110156110045760405162461bcd60e51b81526004016104d890611b2f565b6000878152602081815260408083206001600160a01b038d8116855292528083208985039055908a16825281208054889290611041908490611ad7565b909155505060408051888152602081018890526001600160a01b03808b16928c821692918816917fc3d58168c5ae7397731d063d5bbf3d657854427343f4c083240f7aacaa2d0f62910160405180910390a46110a1848a8a8a8a8a611252565b505050505050505050565b6001600160a01b0384163b15610d865760405163bc197c8160e01b81526001600160a01b0385169063bc197c81906110f09089908990889088908890600401611ba7565b6020604051808303816000875af192505050801561112b575060408051601f3d908101601f1916820190925261112891810190611c05565b60015b6111d757611137611c22565b806308c379a003611170575061114b611c3e565b806111565750611172565b8060405162461bcd60e51b81526004016104d891906113d6565b505b60405162461bcd60e51b815260206004820152603460248201527f455243313135353a207472616e7366657220746f206e6f6e20455243313135356044820152732932b1b2b4bb32b91034b6b83632b6b2b73a32b960611b60648201526084016104d8565b6001600160e01b0319811663bc197c8160e01b14610e995760405162461bcd60e51b81526004016104d890611cc8565b6040805160018082528183019092526060916000919060208083019080368337019050509050828160008151811061124157611241611a92565b602090810291909101015292915050565b6001600160a01b0384163b15610d865760405163f23a6e6160e01b81526001600160a01b0385169063f23a6e61906112969089908990889088908890600401611d10565b6020604051808303816000875af19250505080156112d1575060408051601f3d908101601f191682019092526112ce91810190611c05565b60015b6112dd57611137611c22565b6001600160e01b0319811663f23a6e6160e01b14610e995760405162461bcd60e51b81526004016104d890611cc8565b80356001600160a01b038116811461132457600080fd5b919050565b6000806040838503121561133c57600080fd5b6113458361130d565b946020939093013593505050565b6001600160e01b03198116811461136957600080fd5b50565b60006020828403121561137e57600080fd5b813561138981611353565b9392505050565b6000815180845260005b818110156113b65760208185018101518683018201520161139a565b506000602082860101526020601f19601f83011685010191505092915050565b6020815260006113896020830184611390565b6000602082840312156113fb57600080fd5b5035919050565b634e487b7160e01b600052604160045260246000fd5b601f8201601f1916810167ffffffffffffffff8111828210171561143e5761143e611402565b6040525050565b600067ffffffffffffffff82111561145f5761145f611402565b5060051b60200190565b600082601f83011261147a57600080fd5b8135602061148782611445565b6040516114948282611418565b83815260059390931b85018201928281019150868411156114b457600080fd5b8286015b848110156114cf57803583529183019183016114b8565b509695505050505050565b600082601f8301126114eb57600080fd5b813567ffffffffffffffff81111561150557611505611402565b60405161151c601f8301601f191660200182611418565b81815284602083860101111561153157600080fd5b816020850160208301376000918101602001919091529392505050565b600080600080600060a0868803121561156657600080fd5b61156f8661130d565b945061157d6020870161130d565b9350604086013567ffffffffffffffff8082111561159a57600080fd5b6115a689838a01611469565b945060608801359150808211156115bc57600080fd5b6115c889838a01611469565b935060808801359150808211156115de57600080fd5b506115eb888289016114da565b9150509295509295909350565b6000806040838503121561160b57600080fd5b82359150602083013567ffffffffffffffff81111561162957600080fd5b611635858286016114da565b9150509250929050565b6000806040838503121561165257600080fd5b823567ffffffffffffffff8082111561166a57600080fd5b818501915085601f83011261167e57600080fd5b8135602061168b82611445565b6040516116988282611418565b83815260059390931b85018201928281019150898411156116b857600080fd5b948201945b838610156116dd576116ce8661130d565b825294820194908201906116bd565b965050860135925050808211156116f357600080fd5b5061163585828601611469565b600081518084526020808501945080840160005b8381101561173057815187529582019590820190600101611714565b509495945050505050565b6020815260006113896020830184611700565b60008060006060848603121561176357600080fd5b61176c8461130d565b925060208401359150604084013567ffffffffffffffff81111561178f57600080fd5b61179b868287016114da565b9150509250925092565b600080604083850312156117b857600080fd5b6117c18361130d565b9150602083013567ffffffffffffffff81111561162957600080fd5b600080604083850312156117f057600080fd5b6117f98361130d565b91506020830135801515811461180e57600080fd5b809150509250929050565b60006020828403121561182b57600080fd5b6113898261130d565b6000806040838503121561184757600080fd5b6118508361130d565b915061185e6020840161130d565b90509250929050565b600080600080600060a0868803121561187f57600080fd5b6118888661130d565b94506118966020870161130d565b93506040860135925060608601359150608086013567ffffffffffffffff8111156118c057600080fd5b6115eb888289016114da565b600181811c908216806118e057607f821691505b60208210810361190057634e487b7160e01b600052602260045260246000fd5b50919050565b6020808252602f908201527f455243313135353a2063616c6c6572206973206e6f7420746f6b656e206f776e60408201526e195c881b9bdc88185c1c1c9bdd9959608a1b606082015260800190565b6020808252601a908201527f4461707053746f70506f503a205265676973747279204f6e6c79000000000000604082015260600190565b601f82111561077b57600081815260208120601f850160051c810160208610156119b35750805b601f850160051c820191505b81811015610d86578281556001016119bf565b815167ffffffffffffffff8111156119ec576119ec611402565b611a00816119fa84546118cc565b8461198c565b602080601f831160018114611a355760008415611a1d5750858301515b600019600386901b1c1916600185901b178555610d86565b600085815260208120601f198616915b82811015611a6457888601518255948401946001909101908401611a45565b5085821015611a825787850151600019600388901b60f8161c191681555b5050505050600190811b01905550565b634e487b7160e01b600052603260045260246000fd5b634e487b7160e01b600052601160045260246000fd5b600060018201611ad057611ad0611aa8565b5060010190565b8082018082111561050457610504611aa8565b60208082526025908201527f455243313135353a207472616e7366657220746f20746865207a65726f206164604082015264647265737360d81b606082015260800190565b6020808252602a908201527f455243313135353a20696e73756666696369656e742062616c616e636520666f60408201526939103a3930b739b332b960b11b606082015260800190565b604081526000611b8c6040830185611700565b8281036020840152611b9e8185611700565b95945050505050565b6001600160a01b0386811682528516602082015260a060408201819052600090611bd390830186611700565b8281036060840152611be58186611700565b90508281036080840152611bf98185611390565b98975050505050505050565b600060208284031215611c1757600080fd5b815161138981611353565b600060033d1115611c3b5760046000803e5060005160e01c5b90565b600060443d1015611c4c5790565b6040516003193d81016004833e81513d67ffffffffffffffff8160248401118184111715611c7c57505050505090565b8285019150815181811115611c945750505050505090565b843d8701016020828501011115611cae5750505050505090565b611cbd60208286010187611418565b509095945050505050565b60208082526028908201527f455243313135353a204552433131353552656365697665722072656a656374656040820152676420746f6b656e7360c01b606082015260800190565b6001600160a01b03868116825285166020820152604081018490526060810183905260a060808201819052600090611d4a90830184611390565b97965050505050505056fea2646970667358221220db71aa747d3b62a1964e9b193fa81263d3c7160a1a29055e96a7e7c7752084fd64736f6c63430008110033",
  "devdoc": {
    "kind": "dev",
    "methods": {
      "balanceOf(address,uint256)": {
        "details": "See {IERC1155-balanceOf}. Requirements: - `account` cannot be the zero address."
      },
      "balanceOfBatch(address[],uint256[])": {
        "details": "See {IERC1155-balanceOfBatch}. Requirements: - `accounts` and `ids` must have the same length."
      },
      "create(address,string)": {
        "details": "Creates a new token",
        "params": {
          "_creator": "address of the creator of the token",
          "_uri": "string URI for the token"
        },
        "returns": {
          "_0": "tokenId ID of the token"
        }
      },
      "isApprovedForAll(address,address)": {
        "details": "See {IERC1155-isApprovedForAll}."
      },
      "mint(address,uint256,bytes)": {
        "details": "Mints a token",
        "params": {
          "_data": "bytes data to pass if receiver is contract",
          "_id": "uint256 ID of the token to mint",
          "_to": "address of the future owner of the token"
        }
      },
      "safeBatchTransferFrom(address,address,uint256[],uint256[],bytes)": {
        "details": "See {IERC1155-safeBatchTransferFrom}."
      },
      "safeTransferFrom(address,address,uint256,uint256,bytes)": {
        "details": "See {IERC1155-safeTransferFrom}."
      },
      "setApprovalForAll(address,bool)": {
        "details": "See {IERC1155-setApprovalForAll}."
      },
      "supportsInterface(bytes4)": {
        "details": "See {IERC165-supportsInterface}."
      },
      "tokenIndex()": {
        "details": "Returns the current token Index",
        "returns": {
          "_0": "Current token index"
        }
      },
      "totalSupply(uint256)": {
        "details": "Returns the total quantity for a token ID",
        "params": {
          "_id": "uint256 ID of the token to query"
        },
        "returns": {
          "_0": "amount of token in existence"
        }
      }
    },
    "title": "DappStopPoP",
    "version": 1
  },
  "userdoc": {
    "kind": "user",
    "methods": {},
    "notice": "DappStopPoP is a non-transferrable NFT that indicates a proof of purchase of a dApp on dAppStop.",
    "version": 1
  },
  "storageLayout": {
    "storage": [
      {
        "astId": 25,
        "contract": "contracts/DappStopPoP.sol:DappStopPoP",
        "label": "_balances",
        "offset": 0,
        "slot": "0",
        "type": "t_mapping(t_uint256,t_mapping(t_address,t_uint256))"
      },
      {
        "astId": 31,
        "contract": "contracts/DappStopPoP.sol:DappStopPoP",
        "label": "_operatorApprovals",
        "offset": 0,
        "slot": "1",
        "type": "t_mapping(t_address,t_mapping(t_address,t_bool))"
      },
      {
        "astId": 33,
        "contract": "contracts/DappStopPoP.sol:DappStopPoP",
        "label": "_uri",
        "offset": 0,
        "slot": "2",
        "type": "t_string_storage"
      },
      {
        "astId": 1766,
        "contract": "contracts/DappStopPoP.sol:DappStopPoP",
        "label": "creators",
        "offset": 0,
        "slot": "3",
        "type": "t_mapping(t_uint256,t_address)"
      },
      {
        "astId": 1770,
        "contract": "contracts/DappStopPoP.sol:DappStopPoP",
        "label": "tokenSupply",
        "offset": 0,
        "slot": "4",
        "type": "t_mapping(t_uint256,t_uint256)"
      },
      {
        "astId": 1774,
        "contract": "contracts/DappStopPoP.sol:DappStopPoP",
        "label": "customUri",
        "offset": 0,
        "slot": "5",
        "type": "t_mapping(t_uint256,t_string_storage)"
      },
      {
        "astId": 1776,
        "contract": "contracts/DappStopPoP.sol:DappStopPoP",
        "label": "name",
        "offset": 0,
        "slot": "6",
        "type": "t_string_storage"
      },
      {
        "astId": 1778,
        "contract": "contracts/DappStopPoP.sol:DappStopPoP",
        "label": "symbol",
        "offset": 0,
        "slot": "7",
        "type": "t_string_storage"
      },
      {
        "astId": 1780,
        "contract": "contracts/DappStopPoP.sol:DappStopPoP",
        "label": "REGISTRY",
        "offset": 0,
        "slot": "8",
        "type": "t_address"
      },
      {
        "astId": 1782,
        "contract": "contracts/DappStopPoP.sol:DappStopPoP",
        "label": "index",
        "offset": 0,
        "slot": "9",
        "type": "t_uint256"
      }
    ],
    "types": {
      "t_address": {
        "encoding": "inplace",
        "label": "address",
        "numberOfBytes": "20"
      },
      "t_bool": {
        "encoding": "inplace",
        "label": "bool",
        "numberOfBytes": "1"
      },
      "t_mapping(t_address,t_bool)": {
        "encoding": "mapping",
        "key": "t_address",
        "label": "mapping(address => bool)",
        "numberOfBytes": "32",
        "value": "t_bool"
      },
      "t_mapping(t_address,t_mapping(t_address,t_bool))": {
        "encoding": "mapping",
        "key": "t_address",
        "label": "mapping(address => mapping(address => bool))",
        "numberOfBytes": "32",
        "value": "t_mapping(t_address,t_bool)"
      },
      "t_mapping(t_address,t_uint256)": {
        "encoding": "mapping",
        "key": "t_address",
        "label": "mapping(address => uint256)",
        "numberOfBytes": "32",
        "value": "t_uint256"
      },
      "t_mapping(t_uint256,t_address)": {
        "encoding": "mapping",
        "key": "t_uint256",
        "label": "mapping(uint256 => address)",
        "numberOfBytes": "32",
        "value": "t_address"
      },
      "t_mapping(t_uint256,t_mapping(t_address,t_uint256))": {
        "encoding": "mapping",
        "key": "t_uint256",
        "label": "mapping(uint256 => mapping(address => uint256))",
        "numberOfBytes": "32",
        "value": "t_mapping(t_address,t_uint256)"
      },
      "t_mapping(t_uint256,t_string_storage)": {
        "encoding": "mapping",
        "key": "t_uint256",
        "label": "mapping(uint256 => string)",
        "numberOfBytes": "32",
        "value": "t_string_storage"
      },
      "t_mapping(t_uint256,t_uint256)": {
        "encoding": "mapping",
        "key": "t_uint256",
        "label": "mapping(uint256 => uint256)",
        "numberOfBytes": "32",
        "value": "t_uint256"
      },
      "t_string_storage": {
        "encoding": "bytes",
        "label": "string",
        "numberOfBytes": "32"
      },
      "t_uint256": {
        "encoding": "inplace",
        "label": "uint256",
        "numberOfBytes": "32"
      }
    }
  }
}