{
  "address": "0x20fA475d816CacC2F9a2632F73c90CA11d88917b",
  "abi": [
    {
      "inputs": [],
      "stateMutability": "nonpayable",
      "type": "constructor"
    },
    {
      "anonymous": false,
      "inputs": [
        {
          "indexed": true,
          "internalType": "address",
          "name": "buyer",
          "type": "address"
        },
        {
          "indexed": true,
          "internalType": "uint256",
          "name": "dappId",
          "type": "uint256"
        }
      ],
      "name": "Bought",
      "type": "event"
    },
    {
      "anonymous": false,
      "inputs": [
        {
          "indexed": true,
          "internalType": "address",
          "name": "creator",
          "type": "address"
        },
        {
          "indexed": true,
          "internalType": "uint256",
          "name": "dappId",
          "type": "uint256"
        },
        {
          "components": [
            {
              "internalType": "address",
              "name": "creator",
              "type": "address"
            },
            {
              "internalType": "string",
              "name": "popURI",
              "type": "string"
            },
            {
              "internalType": "string",
              "name": "ceramicURI",
              "type": "string"
            },
            {
              "internalType": "uint256",
              "name": "price",
              "type": "uint256"
            }
          ],
          "indexed": false,
          "internalType": "struct IDappStopRegistry.DappInfo",
          "name": "dappInfo",
          "type": "tuple"
        }
      ],
      "name": "Registered",
      "type": "event"
    },
    {
      "anonymous": false,
      "inputs": [
        {
          "indexed": true,
          "internalType": "uint256",
          "name": "dappId",
          "type": "uint256"
        },
        {
          "components": [
            {
              "internalType": "address",
              "name": "creator",
              "type": "address"
            },
            {
              "internalType": "string",
              "name": "popURI",
              "type": "string"
            },
            {
              "internalType": "string",
              "name": "ceramicURI",
              "type": "string"
            },
            {
              "internalType": "uint256",
              "name": "price",
              "type": "uint256"
            }
          ],
          "indexed": false,
          "internalType": "struct IDappStopRegistry.DappInfo",
          "name": "dappInfo",
          "type": "tuple"
        }
      ],
      "name": "Updated",
      "type": "event"
    },
    {
      "inputs": [],
      "name": "DAPPSTOP_POP",
      "outputs": [
        {
          "internalType": "contract DappStopPoP",
          "name": "",
          "type": "address"
        }
      ],
      "stateMutability": "view",
      "type": "function"
    },
    {
      "inputs": [
        {
          "internalType": "uint256",
          "name": "_dappId",
          "type": "uint256"
        }
      ],
      "name": "buy",
      "outputs": [],
      "stateMutability": "payable",
      "type": "function"
    },
    {
      "inputs": [
        {
          "internalType": "uint256",
          "name": "",
          "type": "uint256"
        }
      ],
      "name": "dappInfo",
      "outputs": [
        {
          "internalType": "address",
          "name": "creator",
          "type": "address"
        },
        {
          "internalType": "string",
          "name": "popURI",
          "type": "string"
        },
        {
          "internalType": "string",
          "name": "ceramicURI",
          "type": "string"
        },
        {
          "internalType": "uint256",
          "name": "price",
          "type": "uint256"
        }
      ],
      "stateMutability": "view",
      "type": "function"
    },
    {
      "inputs": [
        {
          "internalType": "uint256",
          "name": "_dappId",
          "type": "uint256"
        }
      ],
      "name": "getCeramicURI",
      "outputs": [
        {
          "internalType": "string",
          "name": "",
          "type": "string"
        }
      ],
      "stateMutability": "view",
      "type": "function"
    },
    {
      "inputs": [
        {
          "internalType": "uint256",
          "name": "_dappId",
          "type": "uint256"
        }
      ],
      "name": "getCreator",
      "outputs": [
        {
          "internalType": "address",
          "name": "",
          "type": "address"
        }
      ],
      "stateMutability": "view",
      "type": "function"
    },
    {
      "inputs": [],
      "name": "getDappCount",
      "outputs": [
        {
          "internalType": "uint256",
          "name": "",
          "type": "uint256"
        }
      ],
      "stateMutability": "view",
      "type": "function"
    },
    {
      "inputs": [
        {
          "internalType": "uint256",
          "name": "_dappId",
          "type": "uint256"
        }
      ],
      "name": "getDappInfo",
      "outputs": [
        {
          "components": [
            {
              "internalType": "address",
              "name": "creator",
              "type": "address"
            },
            {
              "internalType": "string",
              "name": "popURI",
              "type": "string"
            },
            {
              "internalType": "string",
              "name": "ceramicURI",
              "type": "string"
            },
            {
              "internalType": "uint256",
              "name": "price",
              "type": "uint256"
            }
          ],
          "internalType": "struct IDappStopRegistry.DappInfo",
          "name": "",
          "type": "tuple"
        }
      ],
      "stateMutability": "view",
      "type": "function"
    },
    {
      "inputs": [
        {
          "internalType": "uint256",
          "name": "_dappId",
          "type": "uint256"
        }
      ],
      "name": "getPoPURI",
      "outputs": [
        {
          "internalType": "string",
          "name": "",
          "type": "string"
        }
      ],
      "stateMutability": "view",
      "type": "function"
    },
    {
      "inputs": [
        {
          "internalType": "uint256",
          "name": "_dappId",
          "type": "uint256"
        }
      ],
      "name": "getPrice",
      "outputs": [
        {
          "internalType": "uint256",
          "name": "",
          "type": "uint256"
        }
      ],
      "stateMutability": "view",
      "type": "function"
    },
    {
      "inputs": [
        {
          "components": [
            {
              "internalType": "address",
              "name": "creator",
              "type": "address"
            },
            {
              "internalType": "string",
              "name": "popURI",
              "type": "string"
            },
            {
              "internalType": "string",
              "name": "ceramicURI",
              "type": "string"
            },
            {
              "internalType": "uint256",
              "name": "price",
              "type": "uint256"
            }
          ],
          "internalType": "struct IDappStopRegistry.DappInfo",
          "name": "_dappInfo",
          "type": "tuple"
        }
      ],
      "name": "register",
      "outputs": [],
      "stateMutability": "nonpayable",
      "type": "function"
    },
    {
      "inputs": [
        {
          "internalType": "uint256",
          "name": "_dappId",
          "type": "uint256"
        },
        {
          "components": [
            {
              "internalType": "address",
              "name": "creator",
              "type": "address"
            },
            {
              "internalType": "string",
              "name": "popURI",
              "type": "string"
            },
            {
              "internalType": "string",
              "name": "ceramicURI",
              "type": "string"
            },
            {
              "internalType": "uint256",
              "name": "price",
              "type": "uint256"
            }
          ],
          "internalType": "struct IDappStopRegistry.DappInfo",
          "name": "_dappInfo",
          "type": "tuple"
        }
      ],
      "name": "update",
      "outputs": [],
      "stateMutability": "payable",
      "type": "function"
    }
  ],
  "transactionHash": "0xed39018de426d57eb3f0a34c8b5b4095c696abf0f9a6b3066618219cfaf834b0",
  "args": [],
  "numDeployments": 1,
  "solcInputHash": "f30a8464c555f9ede3e9076d8196df9e",
  "bytecode": "0x608060405234801561001057600080fd5b503060405161001e90610070565b6001600160a01b039091168152602001604051809103906000f08015801561004a573d6000803e3d6000fd5b50600080546001600160a01b0319166001600160a01b039290921691909117905561007d565b6120938061101883390190565b610f8c8061008c6000396000f3fe60806040526004361061009c5760003560e01c8063c180402411610064578063c180402414610171578063d48e638a14610194578063d96a094a146101ca578063db9ce681146101dd578063e19d69e61461020d578063e75722301461022d57600080fd5b806303b46dee146100a15780630c76806c146100c357806337c42b76146100f95780633bd362101461010c57806362c0153514610139575b600080fd5b3480156100ad57600080fd5b506100c16100bc366004610c1d565b61025d565b005b3480156100cf57600080fd5b506100e36100de366004610c5a565b6103fe565b6040516100f09190610cb9565b60405180910390f35b6100c1610107366004610cd3565b6104a3565b34801561011857600080fd5b5061012c610127366004610c5a565b6105cd565b6040516100f09190610d1a565b34801561014557600080fd5b50600054610159906001600160a01b031681565b6040516001600160a01b0390911681526020016100f0565b34801561017d57600080fd5b50610186610760565b6040519081526020016100f0565b3480156101a057600080fd5b506101596101af366004610c5a565b6000908152600160205260409020546001600160a01b031690565b6100c16101d8366004610c5a565b6107dd565b3480156101e957600080fd5b506101fd6101f8366004610c5a565b61095b565b6040516100f09493929190610d7c565b34801561021957600080fd5b506100e3610228366004610c5a565b610a9f565b34801561023957600080fd5b50610186610248366004610c5a565b60009081526001602052604090206003015490565b60008060009054906101000a90046001600160a01b03166001600160a01b031663d55f92736040518163ffffffff1660e01b8152600401602060405180830381865afa1580156102b1573d6000803e3d6000fd5b505050506040513d601f19601f820116820180604052508101906102d59190610dc4565b6000818152600160208181526040909220855181546001600160a01b0319166001600160a01b03909116178155918501519293508492908201906103199082610e66565b506040820151600282019061032e9082610e66565b506060918201516003909101556000549083015160208401516040516334fe2a8d60e11b81526001600160a01b03909316926369fc551a92610374923392600401610f26565b6020604051808303816000875af1158015610393573d6000803e3d6000fd5b505050506040513d601f19601f820116820180604052508101906103b79190610dc4565b5080336001600160a01b03167f0b7c9b5b2fa40353ec279d81cbdc3e6a7545e54bea6718d4aef883bba7565ac0846040516103f29190610d1a565b60405180910390a35050565b600081815260016020526040902060020180546060919061041e90610ddd565b80601f016020809104026020016040519081016040528092919081815260200182805461044a90610ddd565b80156104975780601f1061046c57610100808354040283529160200191610497565b820191906000526020600020905b81548152906001019060200180831161047a57829003601f168201915b50505050509050919050565b6000828152600160205260409020546001600160a01b0316331461052d5760405162461bcd60e51b815260206004820152603660248201527f4461707053746f7052656769737472793a20596f75206d7573742062652074686044820152750652063726561746f72206f66207468697320644170760541b60648201526084015b60405180910390fd5b6000828152600160208181526040909220835181546001600160a01b0319166001600160a01b039091161781559183015183929182019061056e9082610e66565b50604082015160028201906105839082610e66565b5060608201518160030155905050817ffea9b4df338b8695d3266fe9cf8a05180c69310a061af1f8f38ee9ead471d610826040516105c19190610d1a565b60405180910390a25050565b610601604051806080016040528060006001600160a01b031681526020016060815260200160608152602001600081525090565b60008281526001602081815260409283902083516080810190945280546001600160a01b0316845291820180549184019161063b90610ddd565b80601f016020809104026020016040519081016040528092919081815260200182805461066790610ddd565b80156106b45780601f10610689576101008083540402835291602001916106b4565b820191906000526020600020905b81548152906001019060200180831161069757829003601f168201915b505050505081526020016002820180546106cd90610ddd565b80601f01602080910402602001604051908101604052809291908181526020018280546106f990610ddd565b80156107465780601f1061071b57610100808354040283529160200191610746565b820191906000526020600020905b81548152906001019060200180831161072957829003601f168201915b505050505081526020016003820154815250509050919050565b60008060009054906101000a90046001600160a01b03166001600160a01b031663d55f92736040518163ffffffff1660e01b8152600401602060405180830381865afa1580156107b4573d6000803e3d6000fd5b505050506040513d601f19601f820116820180604052508101906107d89190610dc4565b905090565b60008181526001602052604090206003015434146108735760405162461bcd60e51b815260206004820152604760248201527f4461707053746f7052656769737472793a20596f75206d7573742073656e642060448201527f74686520657861637420616d6f756e74206f662045544820746f2062757920746064820152661a1a5cc813919560ca1b608482015260a401610524565b6000818152600160205260408082205490516001600160a01b03909116913480156108fc02929091818181858888f193505050501580156108b8573d6000803e3d6000fd5b50600080546040516394d008ef60e01b8152336004820152602481018490526060604482015260648101929092526001600160a01b0316906394d008ef90608401600060405180830381600087803b15801561091357600080fd5b505af1158015610927573d6000803e3d6000fd5b50506040518392503391507fc55650ccda1011e1cdc769b1fbf546ebb8c97800b6072b49e06cd560305b1d6790600090a350565b6001602081905260009182526040909120805491810180546001600160a01b039093169261098890610ddd565b80601f01602080910402602001604051908101604052809291908181526020018280546109b490610ddd565b8015610a015780601f106109d657610100808354040283529160200191610a01565b820191906000526020600020905b8154815290600101906020018083116109e457829003601f168201915b505050505090806002018054610a1690610ddd565b80601f0160208091040260200160405190810160405280929190818152602001828054610a4290610ddd565b8015610a8f5780601f10610a6457610100808354040283529160200191610a8f565b820191906000526020600020905b815481529060010190602001808311610a7257829003601f168201915b5050505050908060030154905084565b606060016000838152602001908152602001600020600101805461041e90610ddd565b634e487b7160e01b600052604160045260246000fd5b600082601f830112610ae957600080fd5b813567ffffffffffffffff80821115610b0457610b04610ac2565b604051601f8301601f19908116603f01168101908282118183101715610b2c57610b2c610ac2565b81604052838152866020858801011115610b4557600080fd5b836020870160208301376000602085830101528094505050505092915050565b600060808284031215610b7757600080fd5b6040516080810167ffffffffffffffff8282108183111715610b9b57610b9b610ac2565b60409190915290915081908335906001600160a01b0382168214610bbe57600080fd5b90825260208401359080821115610bd457600080fd5b610be086838701610ad8565b60208401526040850135915080821115610bf957600080fd5b50610c0685828601610ad8565b604083015250606083013560608201525092915050565b600060208284031215610c2f57600080fd5b813567ffffffffffffffff811115610c4657600080fd5b610c5284828501610b65565b949350505050565b600060208284031215610c6c57600080fd5b5035919050565b6000815180845260005b81811015610c9957602081850181015186830182015201610c7d565b506000602082860101526020601f19601f83011685010191505092915050565b602081526000610ccc6020830184610c73565b9392505050565b60008060408385031215610ce657600080fd5b82359150602083013567ffffffffffffffff811115610d0457600080fd5b610d1085828601610b65565b9150509250929050565b602080825282516001600160a01b03168282015282015160806040830152600090610d4860a0840182610c73565b90506040840151601f19848303016060850152610d658282610c73565b915050606084015160808401528091505092915050565b6001600160a01b0385168152608060208201819052600090610da090830186610c73565b8281036040840152610db28186610c73565b91505082606083015295945050505050565b600060208284031215610dd657600080fd5b5051919050565b600181811c90821680610df157607f821691505b602082108103610e1157634e487b7160e01b600052602260045260246000fd5b50919050565b601f821115610e6157600081815260208120601f850160051c81016020861015610e3e5750805b601f850160051c820191505b81811015610e5d57828155600101610e4a565b5050505b505050565b815167ffffffffffffffff811115610e8057610e80610ac2565b610e9481610e8e8454610ddd565b84610e17565b602080601f831160018114610ec95760008415610eb15750858301515b600019600386901b1c1916600185901b178555610e5d565b600085815260208120601f198616915b82811015610ef857888601518255948401946001909101908401610ed9565b5085821015610f165787850151600019600388901b60f8161c191681555b5050505050600190811b01905550565b60018060a01b0384168152826020820152606060408201526000610f4d6060830184610c73565b9594505050505056fea264697066735822122036b92cbf0e9040beec9e6355068248870809013c6acc68ff952c7e3d0b406fb664736f6c6343000811003360806040523480156200001157600080fd5b5060405162002093380380620020938339810160408190526200003491620000e5565b6040805160208101909152600081526200004e81620000d3565b5060408051808201909152600b81526a04461707053746f70506f560ac1b6020820152600790620000809082620001bc565b5060408051808201909152600581526404453504f560dc1b6020820152600890620000ac9082620001bc565b50600980546001600160a01b0319166001600160a01b039290921691909117905562000288565b6002620000e18282620001bc565b5050565b600060208284031215620000f857600080fd5b81516001600160a01b03811681146200011057600080fd5b9392505050565b634e487b7160e01b600052604160045260246000fd5b600181811c908216806200014257607f821691505b6020821081036200016357634e487b7160e01b600052602260045260246000fd5b50919050565b601f821115620001b757600081815260208120601f850160051c81016020861015620001925750805b601f850160051c820191505b81811015620001b3578281556001016200019e565b5050505b505050565b81516001600160401b03811115620001d857620001d862000117565b620001f081620001e984546200012d565b8462000169565b602080601f8311600181146200022857600084156200020f5750858301515b600019600386901b1c1916600185901b178555620001b3565b600085815260208120601f198616915b82811015620002595788860151825594840194600190910190840162000238565b5085821015620002785787850151600019600388901b60f8161c191681555b5050505050600190811b01905550565b611dfb80620002986000396000f3fe6080604052600436106101295760003560e01c806369fc551a116100ab578063a22cb4651161006f578063a22cb46514610352578063bd85b03914610372578063cd53d08e1461039f578063d55f9273146103d5578063e985e9c5146103ea578063f242432a1461043357600080fd5b806369fc551a146102b25780638a28a5a2146102d25780638bf4787c146102f257806394d008ef1461032a57806395d89b411461033d57600080fd5b806326a49e37116100f257806326a49e37146102005780632986c0e51461022d5780632eb2c2d6146102435780634e1273f4146102655780634f558e791461029257600080fd5b8062fdd58e1461012e57806301ffc9a71461016157806306fdde03146101915780630e89341c146101b35780632693ebf2146101d3575b600080fd5b34801561013a57600080fd5b5061014e6101493660046113fd565b610453565b6040519081526020015b60405180910390f35b34801561016d57600080fd5b5061018161017c366004611440565b6104ec565b6040519015158152602001610158565b34801561019d57600080fd5b506101a661053c565b60405161015891906114a3565b3480156101bf57600080fd5b506101a66101ce3660046114b6565b6105ca565b3480156101df57600080fd5b5061014e6101ee3660046114b6565b60046020526000908152604090205481565b34801561020c57600080fd5b5061014e61021b3660046114b6565b60066020526000908152604090205481565b34801561023957600080fd5b5061014e600a5481565b34801561024f57600080fd5b5061026361025e366004611625565b610789565b005b34801561027157600080fd5b506102856102803660046116cf565b6107d5565b60405161015891906117d5565b34801561029e57600080fd5b506101816102ad3660046114b6565b6108ff565b3480156102be57600080fd5b5061014e6102cd3660046117e8565b61091e565b3480156102de57600080fd5b506101a66102ed3660046114b6565b610a29565b3480156102fe57600080fd5b50600954610312906001600160a01b031681565b6040516001600160a01b039091168152602001610158565b610263610338366004611853565b610a42565b34801561034957600080fd5b506101a6610b90565b34801561035e57600080fd5b5061026361036d3660046118a0565b610b9d565b34801561037e57600080fd5b5061014e61038d3660046114b6565b60009081526004602052604090205490565b3480156103ab57600080fd5b506103126103ba3660046114b6565b6003602052600090815260409020546001600160a01b031681565b3480156103e157600080fd5b50600a5461014e565b3480156103f657600080fd5b506101816104053660046118dc565b6001600160a01b03918216600090815260016020908152604080832093909416825291909152205460ff1690565b34801561043f57600080fd5b5061026361044e36600461190f565b610bac565b60006001600160a01b0383166104c35760405162461bcd60e51b815260206004820152602a60248201527f455243313135353a2061646472657373207a65726f206973206e6f742061207660448201526930b634b21037bbb732b960b11b60648201526084015b60405180910390fd5b506000818152602081815260408083206001600160a01b03861684529091529020545b92915050565b60006001600160e01b03198216636cdb3d1360e11b148061051d57506001600160e01b031982166303a24d0760e21b145b806104e657506301ffc9a760e01b6001600160e01b03198316146104e6565b6007805461054990611974565b80601f016020809104026020016040519081016040528092919081815260200182805461057590611974565b80156105c25780601f10610597576101008083540402835291602001916105c2565b820191906000526020600020905b8154815290600101906020018083116105a557829003601f168201915b505050505081565b6000818152600360205260409020546060906001600160a01b03166106315760405162461bcd60e51b815260206004820152601f60248201527f4461707053746f70506f503a204e6f6e2d6578697374656e7420746f6b656e0060448201526064016104ba565b6000828152600560205260408120805461064a90611974565b80601f016020809104026020016040519081016040528092919081815260200182805461067690611974565b80156106c35780601f10610698576101008083540402835291602001916106c3565b820191906000526020600020905b8154815290600101906020018083116106a657829003601f168201915b5050505050905060008151111561077357600083815260056020526040902080546106ed90611974565b80601f016020809104026020016040519081016040528092919081815260200182805461071990611974565b80156107665780601f1061073b57610100808354040283529160200191610766565b820191906000526020600020905b81548152906001019060200180831161074957829003601f168201915b5050505050915050919050565b61077c83610bf1565b9392505050565b50919050565b6001600160a01b0385163314806107a557506107a58533610405565b6107c15760405162461bcd60e51b81526004016104ba906119a8565b6107ce8585858585610c85565b5050505050565b6060815183511461083a5760405162461bcd60e51b815260206004820152602960248201527f455243313135353a206163636f756e747320616e6420696473206c656e677468604482015268040dad2e6dac2e8c6d60bb1b60648201526084016104ba565b6000835167ffffffffffffffff811115610856576108566114cf565b60405190808252806020026020018201604052801561087f578160200160208202803683370190505b50905060005b84518110156108f7576108ca8582815181106108a3576108a36119f7565b60200260200101518583815181106108bd576108bd6119f7565b6020026020010151610453565b8282815181106108dc576108dc6119f7565b60209081029190910101526108f081611a23565b9050610885565b509392505050565b6000818152600360205260408120546001600160a01b031615156104e6565b6009546000906001600160a01b0316331461097b5760405162461bcd60e51b815260206004820152601a60248201527f4461707053746f70506f503a205265676973747279204f6e6c7900000000000060448201526064016104ba565b600a54600081815260036020908152604080832080546001600160a01b0319166001600160a01b038a1617905560069091529020849055825115610a0b5760008181526005602052604090206109d18482611a87565b50807f6bb7ff708619ba0610cba295a58592e0451dee2622938c8755667688daf3529b84604051610a0291906114a3565b60405180910390a25b600a8054906000610a1b83611a23565b909155509095945050505050565b6005602052600090815260409020805461054990611974565b6000828152600360205260409020546001600160a01b0316610aa65760405162461bcd60e51b815260206004820181905260248201527f4461707053746f70506f503a204e6f6e2d6578697374656e7420746f6b656e2160448201526064016104ba565b6000828152600660205260409020543414610b035760405162461bcd60e51b815260206004820152601d60248201527f4461707053746f70506f503a20496e636f72726563742070726963652100000060448201526064016104ba565b610b0d8383610453565b15610b5a5760405162461bcd60e51b815260206004820152601c60248201527f4461707053746f70506f503a20416c7265616479206d696e746564210000000060448201526064016104ba565b610b678383600184610e62565b6000828152600460205260408120805460019290610b86908490611b47565b9091555050505050565b6008805461054990611974565b610ba8338383610f76565b5050565b6001600160a01b038516331480610bc85750610bc88533610405565b610be45760405162461bcd60e51b81526004016104ba906119a8565b6107ce8585858585611056565b606060028054610c0090611974565b80601f0160208091040260200160405190810160405280929190818152602001828054610c2c90611974565b8015610c795780601f10610c4e57610100808354040283529160200191610c79565b820191906000526020600020905b815481529060010190602001808311610c5c57829003601f168201915b50505050509050919050565b8151835114610ce75760405162461bcd60e51b815260206004820152602860248201527f455243313135353a2069647320616e6420616d6f756e7473206c656e677468206044820152670dad2e6dac2e8c6d60c31b60648201526084016104ba565b6001600160a01b038416610d0d5760405162461bcd60e51b81526004016104ba90611b5a565b3360005b8451811015610df4576000858281518110610d2e57610d2e6119f7565b602002602001015190506000858381518110610d4c57610d4c6119f7565b602090810291909101810151600084815280835260408082206001600160a01b038e168352909352919091205490915081811015610d9c5760405162461bcd60e51b81526004016104ba90611b9f565b6000838152602081815260408083206001600160a01b038e8116855292528083208585039055908b16825281208054849290610dd9908490611b47565b9250508190555050505080610ded90611a23565b9050610d11565b50846001600160a01b0316866001600160a01b0316826001600160a01b03167f4a39dc06d4c0dbc64b70af90fd698a233a518aa5d07e595d983b8c0526c8f7fb8787604051610e44929190611be9565b60405180910390a4610e5a818787878787611180565b505050505050565b6001600160a01b038416610ec25760405162461bcd60e51b815260206004820152602160248201527f455243313135353a206d696e7420746f20746865207a65726f206164647265736044820152607360f81b60648201526084016104ba565b336000610ece856112db565b90506000610edb856112db565b90506000868152602081815260408083206001600160a01b038b16845290915281208054879290610f0d908490611b47565b909155505060408051878152602081018790526001600160a01b03808a1692600092918716917fc3d58168c5ae7397731d063d5bbf3d657854427343f4c083240f7aacaa2d0f62910160405180910390a4610f6d83600089898989611326565b50505050505050565b816001600160a01b0316836001600160a01b031603610fe95760405162461bcd60e51b815260206004820152602960248201527f455243313135353a2073657474696e6720617070726f76616c20737461747573604482015268103337b91039b2b63360b91b60648201526084016104ba565b6001600160a01b03838116600081815260016020908152604080832094871680845294825291829020805460ff191686151590811790915591519182527f17307eab39ab6107e8899845ad3d59bd9653f200f220920489ca2b5937696c31910160405180910390a3505050565b6001600160a01b03841661107c5760405162461bcd60e51b81526004016104ba90611b5a565b336000611088856112db565b90506000611095856112db565b90506000868152602081815260408083206001600160a01b038c168452909152902054858110156110d85760405162461bcd60e51b81526004016104ba90611b9f565b6000878152602081815260408083206001600160a01b038d8116855292528083208985039055908a16825281208054889290611115908490611b47565b909155505060408051888152602081018890526001600160a01b03808b16928c821692918816917fc3d58168c5ae7397731d063d5bbf3d657854427343f4c083240f7aacaa2d0f62910160405180910390a4611175848a8a8a8a8a611326565b505050505050505050565b6001600160a01b0384163b15610e5a5760405163bc197c8160e01b81526001600160a01b0385169063bc197c81906111c49089908990889088908890600401611c17565b6020604051808303816000875af19250505080156111ff575060408051601f3d908101601f191682019092526111fc91810190611c75565b60015b6112ab5761120b611c92565b806308c379a003611244575061121f611cae565b8061122a5750611246565b8060405162461bcd60e51b81526004016104ba91906114a3565b505b60405162461bcd60e51b815260206004820152603460248201527f455243313135353a207472616e7366657220746f206e6f6e20455243313135356044820152732932b1b2b4bb32b91034b6b83632b6b2b73a32b960611b60648201526084016104ba565b6001600160e01b0319811663bc197c8160e01b14610f6d5760405162461bcd60e51b81526004016104ba90611d38565b60408051600180825281830190925260609160009190602080830190803683370190505090508281600081518110611315576113156119f7565b602090810291909101015292915050565b6001600160a01b0384163b15610e5a5760405163f23a6e6160e01b81526001600160a01b0385169063f23a6e619061136a9089908990889088908890600401611d80565b6020604051808303816000875af19250505080156113a5575060408051601f3d908101601f191682019092526113a291810190611c75565b60015b6113b15761120b611c92565b6001600160e01b0319811663f23a6e6160e01b14610f6d5760405162461bcd60e51b81526004016104ba90611d38565b80356001600160a01b03811681146113f857600080fd5b919050565b6000806040838503121561141057600080fd5b611419836113e1565b946020939093013593505050565b6001600160e01b03198116811461143d57600080fd5b50565b60006020828403121561145257600080fd5b813561077c81611427565b6000815180845260005b8181101561148357602081850181015186830182015201611467565b506000602082860101526020601f19601f83011685010191505092915050565b60208152600061077c602083018461145d565b6000602082840312156114c857600080fd5b5035919050565b634e487b7160e01b600052604160045260246000fd5b601f8201601f1916810167ffffffffffffffff8111828210171561150b5761150b6114cf565b6040525050565b600067ffffffffffffffff82111561152c5761152c6114cf565b5060051b60200190565b600082601f83011261154757600080fd5b8135602061155482611512565b60405161156182826114e5565b83815260059390931b850182019282810191508684111561158157600080fd5b8286015b8481101561159c5780358352918301918301611585565b509695505050505050565b600067ffffffffffffffff8311156115c1576115c16114cf565b6040516115d8601f8501601f1916602001826114e5565b8091508381528484840111156115ed57600080fd5b83836020830137600060208583010152509392505050565b600082601f83011261161657600080fd5b61077c838335602085016115a7565b600080600080600060a0868803121561163d57600080fd5b611646866113e1565b9450611654602087016113e1565b9350604086013567ffffffffffffffff8082111561167157600080fd5b61167d89838a01611536565b9450606088013591508082111561169357600080fd5b61169f89838a01611536565b935060808801359150808211156116b557600080fd5b506116c288828901611605565b9150509295509295909350565b600080604083850312156116e257600080fd5b823567ffffffffffffffff808211156116fa57600080fd5b818501915085601f83011261170e57600080fd5b8135602061171b82611512565b60405161172882826114e5565b83815260059390931b850182019282810191508984111561174857600080fd5b948201945b8386101561176d5761175e866113e1565b8252948201949082019061174d565b9650508601359250508082111561178357600080fd5b5061179085828601611536565b9150509250929050565b600081518084526020808501945080840160005b838110156117ca578151875295820195908201906001016117ae565b509495945050505050565b60208152600061077c602083018461179a565b6000806000606084860312156117fd57600080fd5b611806846113e1565b925060208401359150604084013567ffffffffffffffff81111561182957600080fd5b8401601f8101861361183a57600080fd5b611849868235602084016115a7565b9150509250925092565b60008060006060848603121561186857600080fd5b611871846113e1565b925060208401359150604084013567ffffffffffffffff81111561189457600080fd5b61184986828701611605565b600080604083850312156118b357600080fd5b6118bc836113e1565b9150602083013580151581146118d157600080fd5b809150509250929050565b600080604083850312156118ef57600080fd5b6118f8836113e1565b9150611906602084016113e1565b90509250929050565b600080600080600060a0868803121561192757600080fd5b611930866113e1565b945061193e602087016113e1565b93506040860135925060608601359150608086013567ffffffffffffffff81111561196857600080fd5b6116c288828901611605565b600181811c9082168061198857607f821691505b60208210810361078357634e487b7160e01b600052602260045260246000fd5b6020808252602f908201527f455243313135353a2063616c6c6572206973206e6f7420746f6b656e206f776e60408201526e195c881b9bdc88185c1c1c9bdd9959608a1b606082015260800190565b634e487b7160e01b600052603260045260246000fd5b634e487b7160e01b600052601160045260246000fd5b600060018201611a3557611a35611a0d565b5060010190565b601f821115611a8257600081815260208120601f850160051c81016020861015611a635750805b601f850160051c820191505b81811015610e5a57828155600101611a6f565b505050565b815167ffffffffffffffff811115611aa157611aa16114cf565b611ab581611aaf8454611974565b84611a3c565b602080601f831160018114611aea5760008415611ad25750858301515b600019600386901b1c1916600185901b178555610e5a565b600085815260208120601f198616915b82811015611b1957888601518255948401946001909101908401611afa565b5085821015611b375787850151600019600388901b60f8161c191681555b5050505050600190811b01905550565b808201808211156104e6576104e6611a0d565b60208082526025908201527f455243313135353a207472616e7366657220746f20746865207a65726f206164604082015264647265737360d81b606082015260800190565b6020808252602a908201527f455243313135353a20696e73756666696369656e742062616c616e636520666f60408201526939103a3930b739b332b960b11b606082015260800190565b604081526000611bfc604083018561179a565b8281036020840152611c0e818561179a565b95945050505050565b6001600160a01b0386811682528516602082015260a060408201819052600090611c439083018661179a565b8281036060840152611c55818661179a565b90508281036080840152611c69818561145d565b98975050505050505050565b600060208284031215611c8757600080fd5b815161077c81611427565b600060033d1115611cab5760046000803e5060005160e01c5b90565b600060443d1015611cbc5790565b6040516003193d81016004833e81513d67ffffffffffffffff8160248401118184111715611cec57505050505090565b8285019150815181811115611d045750505050505090565b843d8701016020828501011115611d1e5750505050505090565b611d2d602082860101876114e5565b509095945050505050565b60208082526028908201527f455243313135353a204552433131353552656365697665722072656a656374656040820152676420746f6b656e7360c01b606082015260800190565b6001600160a01b03868116825285166020820152604081018490526060810183905260a060808201819052600090611dba9083018461145d565b97965050505050505056fea2646970667358221220a5af6e7c01673f91881d022b40fb8e0a9588a0ce8f295588f29b4221b805a19064736f6c63430008110033",
  "devdoc": {
    "kind": "dev",
    "methods": {},
    "title": "DappStopRegistry",
    "version": 1
  },
  "userdoc": {
    "kind": "user",
    "methods": {
      "buy(uint256)": {
        "notice": "Purchase a dapp based on the dappId."
      },
      "getCeramicURI(uint256)": {
        "notice": "Get information of a Dapp based on the dappId. (Ceramic URI)"
      },
      "getCreator(uint256)": {
        "notice": "Get information of a Dapp based on the dappId."
      },
      "getDappCount()": {
        "notice": "Get total amount of Dapps Registered."
      },
      "getDappInfo(uint256)": {
        "notice": "Get information of a Dapp based on the dappId."
      },
      "getPoPURI(uint256)": {
        "notice": "Get metadata for the PoP NFT based on the dappId. (IPFS URI)"
      },
      "getPrice(uint256)": {
        "notice": "Get information of a Dapp based on the dappId."
      }
    },
    "notice": "DappStopRegistry allows game developers to register their games on dAppStop.When a creator registers their game, a DappStopPop NFT collection is created for them.",
    "version": 1
  },
  "storageLayout": {
    "storage": [
      {
        "astId": 2048,
        "contract": "contracts/DappStopRegistry.sol:DappStopRegistry",
        "label": "DAPPSTOP_POP",
        "offset": 0,
        "slot": "0",
        "type": "t_contract(DappStopPoP)2038"
      },
      {
        "astId": 2053,
        "contract": "contracts/DappStopRegistry.sol:DappStopRegistry",
        "label": "dappInfo",
        "offset": 0,
        "slot": "1",
        "type": "t_mapping(t_uint256,t_struct(DappInfo)2328_storage)"
      }
    ],
    "types": {
      "t_address": {
        "encoding": "inplace",
        "label": "address",
        "numberOfBytes": "20"
      },
      "t_contract(DappStopPoP)2038": {
        "encoding": "inplace",
        "label": "contract DappStopPoP",
        "numberOfBytes": "20"
      },
      "t_mapping(t_uint256,t_struct(DappInfo)2328_storage)": {
        "encoding": "mapping",
        "key": "t_uint256",
        "label": "mapping(uint256 => struct IDappStopRegistry.DappInfo)",
        "numberOfBytes": "32",
        "value": "t_struct(DappInfo)2328_storage"
      },
      "t_string_storage": {
        "encoding": "bytes",
        "label": "string",
        "numberOfBytes": "32"
      },
      "t_struct(DappInfo)2328_storage": {
        "encoding": "inplace",
        "label": "struct IDappStopRegistry.DappInfo",
        "members": [
          {
            "astId": 2321,
            "contract": "contracts/DappStopRegistry.sol:DappStopRegistry",
            "label": "creator",
            "offset": 0,
            "slot": "0",
            "type": "t_address"
          },
          {
            "astId": 2323,
            "contract": "contracts/DappStopRegistry.sol:DappStopRegistry",
            "label": "popURI",
            "offset": 0,
            "slot": "1",
            "type": "t_string_storage"
          },
          {
            "astId": 2325,
            "contract": "contracts/DappStopRegistry.sol:DappStopRegistry",
            "label": "ceramicURI",
            "offset": 0,
            "slot": "2",
            "type": "t_string_storage"
          },
          {
            "astId": 2327,
            "contract": "contracts/DappStopRegistry.sol:DappStopRegistry",
            "label": "price",
            "offset": 0,
            "slot": "3",
            "type": "t_uint256"
          }
        ],
        "numberOfBytes": "128"
      },
      "t_uint256": {
        "encoding": "inplace",
        "label": "uint256",
        "numberOfBytes": "32"
      }
    }
  }
}