{
  "address": "0x7eA45AB3E9A5A8b87E0ddd1A26482Cd8f72B8A83",
  "abi": [
    {
      "inputs": [],
      "stateMutability": "nonpayable",
      "type": "constructor"
    },
    {
      "anonymous": false,
      "inputs": [
        {
          "indexed": true,
          "internalType": "address",
          "name": "account",
          "type": "address"
        },
        {
          "indexed": true,
          "internalType": "address",
          "name": "operator",
          "type": "address"
        },
        {
          "indexed": false,
          "internalType": "bool",
          "name": "approved",
          "type": "bool"
        }
      ],
      "name": "ApprovalForAll",
      "type": "event"
    },
    {
      "anonymous": false,
      "inputs": [
        {
          "indexed": true,
          "internalType": "address",
          "name": "operator",
          "type": "address"
        },
        {
          "indexed": true,
          "internalType": "address",
          "name": "from",
          "type": "address"
        },
        {
          "indexed": true,
          "internalType": "address",
          "name": "to",
          "type": "address"
        },
        {
          "indexed": false,
          "internalType": "uint256[]",
          "name": "ids",
          "type": "uint256[]"
        },
        {
          "indexed": false,
          "internalType": "uint256[]",
          "name": "values",
          "type": "uint256[]"
        }
      ],
      "name": "TransferBatch",
      "type": "event"
    },
    {
      "anonymous": false,
      "inputs": [
        {
          "indexed": true,
          "internalType": "address",
          "name": "operator",
          "type": "address"
        },
        {
          "indexed": true,
          "internalType": "address",
          "name": "from",
          "type": "address"
        },
        {
          "indexed": true,
          "internalType": "address",
          "name": "to",
          "type": "address"
        },
        {
          "indexed": false,
          "internalType": "uint256",
          "name": "id",
          "type": "uint256"
        },
        {
          "indexed": false,
          "internalType": "uint256",
          "name": "value",
          "type": "uint256"
        }
      ],
      "name": "TransferSingle",
      "type": "event"
    },
    {
      "anonymous": false,
      "inputs": [
        {
          "indexed": false,
          "internalType": "string",
          "name": "value",
          "type": "string"
        },
        {
          "indexed": true,
          "internalType": "uint256",
          "name": "id",
          "type": "uint256"
        }
      ],
      "name": "URI",
      "type": "event"
    },
    {
      "inputs": [],
      "name": "REGISTRY",
      "outputs": [
        {
          "internalType": "address",
          "name": "",
          "type": "address"
        }
      ],
      "stateMutability": "view",
      "type": "function"
    },
    {
      "inputs": [
        {
          "internalType": "address",
          "name": "account",
          "type": "address"
        },
        {
          "internalType": "uint256",
          "name": "id",
          "type": "uint256"
        }
      ],
      "name": "balanceOf",
      "outputs": [
        {
          "internalType": "uint256",
          "name": "",
          "type": "uint256"
        }
      ],
      "stateMutability": "view",
      "type": "function"
    },
    {
      "inputs": [
        {
          "internalType": "address[]",
          "name": "accounts",
          "type": "address[]"
        },
        {
          "internalType": "uint256[]",
          "name": "ids",
          "type": "uint256[]"
        }
      ],
      "name": "balanceOfBatch",
      "outputs": [
        {
          "internalType": "uint256[]",
          "name": "",
          "type": "uint256[]"
        }
      ],
      "stateMutability": "view",
      "type": "function"
    },
    {
      "inputs": [
        {
          "internalType": "address",
          "name": "_creator",
          "type": "address"
        },
        {
          "internalType": "string",
          "name": "_uri",
          "type": "string"
        }
      ],
      "name": "create",
      "outputs": [
        {
          "internalType": "uint256",
          "name": "",
          "type": "uint256"
        }
      ],
      "stateMutability": "nonpayable",
      "type": "function"
    },
    {
      "inputs": [
        {
          "internalType": "uint256",
          "name": "",
          "type": "uint256"
        }
      ],
      "name": "creators",
      "outputs": [
        {
          "internalType": "address",
          "name": "",
          "type": "address"
        }
      ],
      "stateMutability": "view",
      "type": "function"
    },
    {
      "inputs": [
        {
          "internalType": "uint256",
          "name": "",
          "type": "uint256"
        }
      ],
      "name": "customUri",
      "outputs": [
        {
          "internalType": "string",
          "name": "",
          "type": "string"
        }
      ],
      "stateMutability": "view",
      "type": "function"
    },
    {
      "inputs": [
        {
          "internalType": "uint256",
          "name": "_id",
          "type": "uint256"
        }
      ],
      "name": "exists",
      "outputs": [
        {
          "internalType": "bool",
          "name": "",
          "type": "bool"
        }
      ],
      "stateMutability": "view",
      "type": "function"
    },
    {
      "inputs": [],
      "name": "index",
      "outputs": [
        {
          "internalType": "uint256",
          "name": "",
          "type": "uint256"
        }
      ],
      "stateMutability": "view",
      "type": "function"
    },
    {
      "inputs": [
        {
          "internalType": "address",
          "name": "account",
          "type": "address"
        },
        {
          "internalType": "address",
          "name": "operator",
          "type": "address"
        }
      ],
      "name": "isApprovedForAll",
      "outputs": [
        {
          "internalType": "bool",
          "name": "",
          "type": "bool"
        }
      ],
      "stateMutability": "view",
      "type": "function"
    },
    {
      "inputs": [
        {
          "internalType": "address",
          "name": "_to",
          "type": "address"
        },
        {
          "internalType": "uint256",
          "name": "_id",
          "type": "uint256"
        },
        {
          "internalType": "bytes",
          "name": "_data",
          "type": "bytes"
        }
      ],
      "name": "mint",
      "outputs": [],
      "stateMutability": "payable",
      "type": "function"
    },
    {
      "inputs": [],
      "name": "name",
      "outputs": [
        {
          "internalType": "string",
          "name": "",
          "type": "string"
        }
      ],
      "stateMutability": "view",
      "type": "function"
    },
    {
      "inputs": [
        {
          "internalType": "address",
          "name": "from",
          "type": "address"
        },
        {
          "internalType": "address",
          "name": "to",
          "type": "address"
        },
        {
          "internalType": "uint256[]",
          "name": "ids",
          "type": "uint256[]"
        },
        {
          "internalType": "uint256[]",
          "name": "amounts",
          "type": "uint256[]"
        },
        {
          "internalType": "bytes",
          "name": "data",
          "type": "bytes"
        }
      ],
      "name": "safeBatchTransferFrom",
      "outputs": [],
      "stateMutability": "nonpayable",
      "type": "function"
    },
    {
      "inputs": [
        {
          "internalType": "address",
          "name": "from",
          "type": "address"
        },
        {
          "internalType": "address",
          "name": "to",
          "type": "address"
        },
        {
          "internalType": "uint256",
          "name": "id",
          "type": "uint256"
        },
        {
          "internalType": "uint256",
          "name": "amount",
          "type": "uint256"
        },
        {
          "internalType": "bytes",
          "name": "data",
          "type": "bytes"
        }
      ],
      "name": "safeTransferFrom",
      "outputs": [],
      "stateMutability": "nonpayable",
      "type": "function"
    },
    {
      "inputs": [
        {
          "internalType": "address",
          "name": "operator",
          "type": "address"
        },
        {
          "internalType": "bool",
          "name": "approved",
          "type": "bool"
        }
      ],
      "name": "setApprovalForAll",
      "outputs": [],
      "stateMutability": "nonpayable",
      "type": "function"
    },
    {
      "inputs": [
        {
          "internalType": "address",
          "name": "registry",
          "type": "address"
        }
      ],
      "name": "setRegistry",
      "outputs": [],
      "stateMutability": "nonpayable",
      "type": "function"
    },
    {
      "inputs": [
        {
          "internalType": "bytes4",
          "name": "interfaceId",
          "type": "bytes4"
        }
      ],
      "name": "supportsInterface",
      "outputs": [
        {
          "internalType": "bool",
          "name": "",
          "type": "bool"
        }
      ],
      "stateMutability": "view",
      "type": "function"
    },
    {
      "inputs": [],
      "name": "symbol",
      "outputs": [
        {
          "internalType": "string",
          "name": "",
          "type": "string"
        }
      ],
      "stateMutability": "view",
      "type": "function"
    },
    {
      "inputs": [],
      "name": "tokenIndex",
      "outputs": [
        {
          "internalType": "uint256",
          "name": "",
          "type": "uint256"
        }
      ],
      "stateMutability": "view",
      "type": "function"
    },
    {
      "inputs": [
        {
          "internalType": "uint256",
          "name": "",
          "type": "uint256"
        }
      ],
      "name": "tokenSupply",
      "outputs": [
        {
          "internalType": "uint256",
          "name": "",
          "type": "uint256"
        }
      ],
      "stateMutability": "view",
      "type": "function"
    },
    {
      "inputs": [
        {
          "internalType": "uint256",
          "name": "_id",
          "type": "uint256"
        }
      ],
      "name": "totalSupply",
      "outputs": [
        {
          "internalType": "uint256",
          "name": "",
          "type": "uint256"
        }
      ],
      "stateMutability": "view",
      "type": "function"
    },
    {
      "inputs": [
        {
          "internalType": "uint256",
          "name": "_id",
          "type": "uint256"
        },
        {
          "internalType": "string",
          "name": "_uri",
          "type": "string"
        }
      ],
      "name": "updateURI",
      "outputs": [],
      "stateMutability": "nonpayable",
      "type": "function"
    },
    {
      "inputs": [
        {
          "internalType": "uint256",
          "name": "_id",
          "type": "uint256"
        }
      ],
      "name": "uri",
      "outputs": [
        {
          "internalType": "string",
          "name": "",
          "type": "string"
        }
      ],
      "stateMutability": "view",
      "type": "function"
    }
  ],
  "transactionHash": "0xba4d31eedb3f60dd630c8955b22dc88f1b0411c0c301a90c3a7c832b931d325e",
  "args": [],
  "numDeployments": 1,
  "solcInputHash": "ede7bd961767e84704a83896eb92fd54",
  "bytecode": "0x60806040523480156200001157600080fd5b506040805160208101909152600081526200002c8162000091565b5060408051808201909152600b81526a04461707053746f70506f560ac1b60208201526006906200005e908262000148565b5060408051808201909152600581526404453504f560dc1b60208201526007906200008a908262000148565b5062000214565b60026200009f828262000148565b5050565b634e487b7160e01b600052604160045260246000fd5b600181811c90821680620000ce57607f821691505b602082108103620000ef57634e487b7160e01b600052602260045260246000fd5b50919050565b601f8211156200014357600081815260208120601f850160051c810160208610156200011e5750805b601f850160051c820191505b818110156200013f578281556001016200012a565b5050505b505050565b81516001600160401b03811115620001645762000164620000a3565b6200017c81620001758454620000b9565b84620000f5565b602080601f831160018114620001b457600084156200019b5750858301515b600019600386901b1c1916600185901b1785556200013f565b600085815260208120601f198616915b82811015620001e557888601518255948401946001909101908401620001c4565b5085821015620002045787850151600019600388901b60f8161c191681555b5050505050600190811b01905550565b611e1280620002246000396000f3fe6080604052600436106101345760003560e01c80638a28a5a2116100ab578063a91ee0dc1161006f578063a91ee0dc14610370578063bd85b03914610390578063cd53d08e146103bd578063d55f9273146103f3578063e985e9c514610408578063f242432a1461045157600080fd5b80638a28a5a2146102e857806394d008ef1461030857806395d89b411461031b578063a15ab08d14610330578063a22cb4651461035057600080fd5b80632693ebf2116100fd5780632693ebf2146102165780632986c0e5146102435780632eb2c2d61461025957806331d41c691461027b5780634e1273f41461029b5780634f558e79146102c857600080fd5b8062fdd58e1461013957806301ffc9a71461016c57806306433b1b1461019c57806306fdde03146101d45780630e89341c146101f6575b600080fd5b34801561014557600080fd5b506101596101543660046113b0565b610471565b6040519081526020015b60405180910390f35b34801561017857600080fd5b5061018c6101873660046113f3565b61050a565b6040519015158152602001610163565b3480156101a857600080fd5b506008546101bc906001600160a01b031681565b6040516001600160a01b039091168152602001610163565b3480156101e057600080fd5b506101e961055a565b604051610163919061145d565b34801561020257600080fd5b506101e9610211366004611470565b6105e8565b34801561022257600080fd5b50610159610231366004611470565b60046020526000908152604090205481565b34801561024f57600080fd5b5061015960095481565b34801561026557600080fd5b506102796102743660046115d5565b6106ed565b005b34801561028757600080fd5b5061027961029636600461167f565b610739565b3480156102a757600080fd5b506102bb6102b63660046116c6565b610780565b60405161016391906117c2565b3480156102d457600080fd5b5061018c6102e3366004611470565b6108aa565b3480156102f457600080fd5b506101e9610303366004611470565b6108c9565b6102796103163660046117d5565b6108e2565b34801561032757600080fd5b506101e96109fd565b34801561033c57600080fd5b5061015961034b36600461182c565b610a0a565b34801561035c57600080fd5b5061027961036b366004611864565b610ad7565b34801561037c57600080fd5b5061027961038b3660046118a0565b610ae6565b34801561039c57600080fd5b506101596103ab366004611470565b60009081526004602052604090205490565b3480156103c957600080fd5b506101bc6103d8366004611470565b6003602052600090815260409020546001600160a01b031681565b3480156103ff57600080fd5b50600954610159565b34801561041457600080fd5b5061018c6104233660046118bb565b6001600160a01b03918216600090815260016020908152604080832093909416825291909152205460ff1690565b34801561045d57600080fd5b5061027961046c3660046118ee565b610b6c565b60006001600160a01b0383166104e15760405162461bcd60e51b815260206004820152602a60248201527f455243313135353a2061646472657373207a65726f206973206e6f742061207660448201526930b634b21037bbb732b960b11b60648201526084015b60405180910390fd5b506000818152602081815260408083206001600160a01b03861684529091529020545b92915050565b60006001600160e01b03198216636cdb3d1360e11b148061053b57506001600160e01b031982166303a24d0760e21b145b8061050457506301ffc9a760e01b6001600160e01b0319831614610504565b6006805461056790611953565b80601f016020809104026020016040519081016040528092919081815260200182805461059390611953565b80156105e05780601f106105b5576101008083540402835291602001916105e0565b820191906000526020600020905b8154815290600101906020018083116105c357829003601f168201915b505050505081565b6000818152600360205260409020546060906001600160a01b031661064f5760405162461bcd60e51b815260206004820152601f60248201527f4461707053746f70506f503a204e6f6e2d6578697374656e7420746f6b656e0060448201526064016104d8565b6000828152600560205260409020805461066890611953565b80601f016020809104026020016040519081016040528092919081815260200182805461069490611953565b80156106e15780601f106106b6576101008083540402835291602001916106e1565b820191906000526020600020905b8154815290600101906020018083116106c457829003601f168201915b50505050509050919050565b6001600160a01b03851633148061070957506107098533610423565b6107255760405162461bcd60e51b81526004016104d89061198d565b6107328585858585610bb1565b5050505050565b6008546001600160a01b031633146107635760405162461bcd60e51b81526004016104d8906119dc565b600082815260056020526040902061077b8282611a59565b505050565b606081518351146107e55760405162461bcd60e51b815260206004820152602960248201527f455243313135353a206163636f756e747320616e6420696473206c656e677468604482015268040dad2e6dac2e8c6d60bb1b60648201526084016104d8565b6000835167ffffffffffffffff81111561080157610801611489565b60405190808252806020026020018201604052801561082a578160200160208202803683370190505b50905060005b84518110156108a25761087585828151811061084e5761084e611b19565b602002602001015185838151811061086857610868611b19565b6020026020010151610471565b82828151811061088757610887611b19565b602090810291909101015261089b81611b45565b9050610830565b509392505050565b6000818152600360205260408120546001600160a01b03161515610504565b6005602052600090815260409020805461056790611953565b6008546001600160a01b0316331461090c5760405162461bcd60e51b81526004016104d8906119dc565b6000828152600360205260409020546001600160a01b03166109705760405162461bcd60e51b815260206004820181905260248201527f4461707053746f70506f503a204e6f6e2d6578697374656e7420746f6b656e2160448201526064016104d8565b61097a8383610471565b156109c75760405162461bcd60e51b815260206004820152601c60248201527f4461707053746f70506f503a20416c7265616479206d696e746564210000000060448201526064016104d8565b6109d48383600184610d9c565b60008281526004602052604081208054600192906109f3908490611b5e565b9091555050505050565b6007805461056790611953565b6008546000906001600160a01b03163314610a375760405162461bcd60e51b81526004016104d8906119dc565b600954600081815260036020526040902080546001600160a01b0319166001600160a01b038616179055825115610aba576000818152600560205260409020610a808482611a59565b50807f6bb7ff708619ba0610cba295a58592e0451dee2622938c8755667688daf3529b84604051610ab1919061145d565b60405180910390a25b60098054906000610aca83611b45565b9091555090949350505050565b610ae2338383610ebf565b5050565b6008546001600160a01b031615610b4a5760405162461bcd60e51b815260206004820152602260248201527f4461707053746f70506f503a20526567697374727920416c7265616479205365604482015261742160f01b60648201526084016104d8565b600880546001600160a01b0319166001600160a01b0392909216919091179055565b6001600160a01b038516331480610b885750610b888533610423565b610ba45760405162461bcd60e51b81526004016104d89061198d565b6107328585858585610f9f565b8151835114610c135760405162461bcd60e51b815260206004820152602860248201527f455243313135353a2069647320616e6420616d6f756e7473206c656e677468206044820152670dad2e6dac2e8c6d60c31b60648201526084016104d8565b6001600160a01b038416610c395760405162461bcd60e51b81526004016104d890611b71565b33610c488187878787876110d7565b60005b8451811015610d2e576000858281518110610c6857610c68611b19565b602002602001015190506000858381518110610c8657610c86611b19565b602090810291909101810151600084815280835260408082206001600160a01b038e168352909352919091205490915081811015610cd65760405162461bcd60e51b81526004016104d890611bb6565b6000838152602081815260408083206001600160a01b038e8116855292528083208585039055908b16825281208054849290610d13908490611b5e565b9250508190555050505080610d2790611b45565b9050610c4b565b50846001600160a01b0316866001600160a01b0316826001600160a01b03167f4a39dc06d4c0dbc64b70af90fd698a233a518aa5d07e595d983b8c0526c8f7fb8787604051610d7e929190611c00565b60405180910390a4610d94818787878787611133565b505050505050565b6001600160a01b038416610dfc5760405162461bcd60e51b815260206004820152602160248201527f455243313135353a206d696e7420746f20746865207a65726f206164647265736044820152607360f81b60648201526084016104d8565b336000610e088561128e565b90506000610e158561128e565b9050610e26836000898585896110d7565b6000868152602081815260408083206001600160a01b038b16845290915281208054879290610e56908490611b5e565b909155505060408051878152602081018790526001600160a01b03808a1692600092918716917fc3d58168c5ae7397731d063d5bbf3d657854427343f4c083240f7aacaa2d0f62910160405180910390a4610eb6836000898989896112d9565b50505050505050565b816001600160a01b0316836001600160a01b031603610f325760405162461bcd60e51b815260206004820152602960248201527f455243313135353a2073657474696e6720617070726f76616c20737461747573604482015268103337b91039b2b63360b91b60648201526084016104d8565b6001600160a01b03838116600081815260016020908152604080832094871680845294825291829020805460ff191686151590811790915591519182527f17307eab39ab6107e8899845ad3d59bd9653f200f220920489ca2b5937696c31910160405180910390a3505050565b6001600160a01b038416610fc55760405162461bcd60e51b81526004016104d890611b71565b336000610fd18561128e565b90506000610fde8561128e565b9050610fee8389898585896110d7565b6000868152602081815260408083206001600160a01b038c1684529091529020548581101561102f5760405162461bcd60e51b81526004016104d890611bb6565b6000878152602081815260408083206001600160a01b038d8116855292528083208985039055908a1682528120805488929061106c908490611b5e565b909155505060408051888152602081018890526001600160a01b03808b16928c821692918816917fc3d58168c5ae7397731d063d5bbf3d657854427343f4c083240f7aacaa2d0f62910160405180910390a46110cc848a8a8a8a8a6112d9565b505050505050505050565b6001600160a01b0385161561112e5760405162461bcd60e51b815260206004820152601e60248201527f4461707053746f70506f503a204e6f6e2d7472616e736665727261626c65000060448201526064016104d8565b610d94565b6001600160a01b0384163b15610d945760405163bc197c8160e01b81526001600160a01b0385169063bc197c81906111779089908990889088908890600401611c2e565b6020604051808303816000875af19250505080156111b2575060408051601f3d908101601f191682019092526111af91810190611c8c565b60015b61125e576111be611ca9565b806308c379a0036111f757506111d2611cc5565b806111dd57506111f9565b8060405162461bcd60e51b81526004016104d8919061145d565b505b60405162461bcd60e51b815260206004820152603460248201527f455243313135353a207472616e7366657220746f206e6f6e20455243313135356044820152732932b1b2b4bb32b91034b6b83632b6b2b73a32b960611b60648201526084016104d8565b6001600160e01b0319811663bc197c8160e01b14610eb65760405162461bcd60e51b81526004016104d890611d4f565b604080516001808252818301909252606091600091906020808301908036833701905050905082816000815181106112c8576112c8611b19565b602090810291909101015292915050565b6001600160a01b0384163b15610d945760405163f23a6e6160e01b81526001600160a01b0385169063f23a6e619061131d9089908990889088908890600401611d97565b6020604051808303816000875af1925050508015611358575060408051601f3d908101601f1916820190925261135591810190611c8c565b60015b611364576111be611ca9565b6001600160e01b0319811663f23a6e6160e01b14610eb65760405162461bcd60e51b81526004016104d890611d4f565b80356001600160a01b03811681146113ab57600080fd5b919050565b600080604083850312156113c357600080fd5b6113cc83611394565b946020939093013593505050565b6001600160e01b0319811681146113f057600080fd5b50565b60006020828403121561140557600080fd5b8135611410816113da565b9392505050565b6000815180845260005b8181101561143d57602081850181015186830182015201611421565b506000602082860101526020601f19601f83011685010191505092915050565b6020815260006114106020830184611417565b60006020828403121561148257600080fd5b5035919050565b634e487b7160e01b600052604160045260246000fd5b601f8201601f1916810167ffffffffffffffff811182821017156114c5576114c5611489565b6040525050565b600067ffffffffffffffff8211156114e6576114e6611489565b5060051b60200190565b600082601f83011261150157600080fd5b8135602061150e826114cc565b60405161151b828261149f565b83815260059390931b850182019282810191508684111561153b57600080fd5b8286015b84811015611556578035835291830191830161153f565b509695505050505050565b600082601f83011261157257600080fd5b813567ffffffffffffffff81111561158c5761158c611489565b6040516115a3601f8301601f19166020018261149f565b8181528460208386010111156115b857600080fd5b816020850160208301376000918101602001919091529392505050565b600080600080600060a086880312156115ed57600080fd5b6115f686611394565b945061160460208701611394565b9350604086013567ffffffffffffffff8082111561162157600080fd5b61162d89838a016114f0565b9450606088013591508082111561164357600080fd5b61164f89838a016114f0565b9350608088013591508082111561166557600080fd5b5061167288828901611561565b9150509295509295909350565b6000806040838503121561169257600080fd5b82359150602083013567ffffffffffffffff8111156116b057600080fd5b6116bc85828601611561565b9150509250929050565b600080604083850312156116d957600080fd5b823567ffffffffffffffff808211156116f157600080fd5b818501915085601f83011261170557600080fd5b81356020611712826114cc565b60405161171f828261149f565b83815260059390931b850182019282810191508984111561173f57600080fd5b948201945b838610156117645761175586611394565b82529482019490820190611744565b9650508601359250508082111561177a57600080fd5b506116bc858286016114f0565b600081518084526020808501945080840160005b838110156117b75781518752958201959082019060010161179b565b509495945050505050565b6020815260006114106020830184611787565b6000806000606084860312156117ea57600080fd5b6117f384611394565b925060208401359150604084013567ffffffffffffffff81111561181657600080fd5b61182286828701611561565b9150509250925092565b6000806040838503121561183f57600080fd5b61184883611394565b9150602083013567ffffffffffffffff8111156116b057600080fd5b6000806040838503121561187757600080fd5b61188083611394565b91506020830135801515811461189557600080fd5b809150509250929050565b6000602082840312156118b257600080fd5b61141082611394565b600080604083850312156118ce57600080fd5b6118d783611394565b91506118e560208401611394565b90509250929050565b600080600080600060a0868803121561190657600080fd5b61190f86611394565b945061191d60208701611394565b93506040860135925060608601359150608086013567ffffffffffffffff81111561194757600080fd5b61167288828901611561565b600181811c9082168061196757607f821691505b60208210810361198757634e487b7160e01b600052602260045260246000fd5b50919050565b6020808252602f908201527f455243313135353a2063616c6c6572206973206e6f7420746f6b656e206f776e60408201526e195c881b9bdc88185c1c1c9bdd9959608a1b606082015260800190565b6020808252601a908201527f4461707053746f70506f503a205265676973747279204f6e6c79000000000000604082015260600190565b601f82111561077b57600081815260208120601f850160051c81016020861015611a3a5750805b601f850160051c820191505b81811015610d9457828155600101611a46565b815167ffffffffffffffff811115611a7357611a73611489565b611a8781611a818454611953565b84611a13565b602080601f831160018114611abc5760008415611aa45750858301515b600019600386901b1c1916600185901b178555610d94565b600085815260208120601f198616915b82811015611aeb57888601518255948401946001909101908401611acc565b5085821015611b095787850151600019600388901b60f8161c191681555b5050505050600190811b01905550565b634e487b7160e01b600052603260045260246000fd5b634e487b7160e01b600052601160045260246000fd5b600060018201611b5757611b57611b2f565b5060010190565b8082018082111561050457610504611b2f565b60208082526025908201527f455243313135353a207472616e7366657220746f20746865207a65726f206164604082015264647265737360d81b606082015260800190565b6020808252602a908201527f455243313135353a20696e73756666696369656e742062616c616e636520666f60408201526939103a3930b739b332b960b11b606082015260800190565b604081526000611c136040830185611787565b8281036020840152611c258185611787565b95945050505050565b6001600160a01b0386811682528516602082015260a060408201819052600090611c5a90830186611787565b8281036060840152611c6c8186611787565b90508281036080840152611c808185611417565b98975050505050505050565b600060208284031215611c9e57600080fd5b8151611410816113da565b600060033d1115611cc25760046000803e5060005160e01c5b90565b600060443d1015611cd35790565b6040516003193d81016004833e81513d67ffffffffffffffff8160248401118184111715611d0357505050505090565b8285019150815181811115611d1b5750505050505090565b843d8701016020828501011115611d355750505050505090565b611d446020828601018761149f565b509095945050505050565b60208082526028908201527f455243313135353a204552433131353552656365697665722072656a656374656040820152676420746f6b656e7360c01b606082015260800190565b6001600160a01b03868116825285166020820152604081018490526060810183905260a060808201819052600090611dd190830184611417565b97965050505050505056fea264697066735822122012a12b13385b093ab902ddc59d60f69be3c5d8de5990855e7865d21d9e6c9a8764736f6c63430008110033",
  "devdoc": {
    "kind": "dev",
    "methods": {
      "balanceOf(address,uint256)": {
        "details": "See {IERC1155-balanceOf}. Requirements: - `account` cannot be the zero address."
      },
      "balanceOfBatch(address[],uint256[])": {
        "details": "See {IERC1155-balanceOfBatch}. Requirements: - `accounts` and `ids` must have the same length."
      },
      "create(address,string)": {
        "details": "Creates a new token",
        "params": {
          "_creator": "address of the creator of the token",
          "_uri": "string URI for the token"
        },
        "returns": {
          "_0": "tokenId ID of the token"
        }
      },
      "isApprovedForAll(address,address)": {
        "details": "See {IERC1155-isApprovedForAll}."
      },
      "mint(address,uint256,bytes)": {
        "details": "Mints a token",
        "params": {
          "_data": "bytes data to pass if receiver is contract",
          "_id": "uint256 ID of the token to mint",
          "_to": "address of the future owner of the token"
        }
      },
      "safeBatchTransferFrom(address,address,uint256[],uint256[],bytes)": {
        "details": "See {IERC1155-safeBatchTransferFrom}."
      },
      "safeTransferFrom(address,address,uint256,uint256,bytes)": {
        "details": "See {IERC1155-safeTransferFrom}."
      },
      "setApprovalForAll(address,bool)": {
        "details": "See {IERC1155-setApprovalForAll}."
      },
      "supportsInterface(bytes4)": {
        "details": "See {IERC165-supportsInterface}."
      },
      "tokenIndex()": {
        "details": "Returns the current token Index",
        "returns": {
          "_0": "Current token index"
        }
      },
      "totalSupply(uint256)": {
        "details": "Returns the total quantity for a token ID",
        "params": {
          "_id": "uint256 ID of the token to query"
        },
        "returns": {
          "_0": "amount of token in existence"
        }
      }
    },
    "title": "DappStopPoP",
    "version": 1
  },
  "userdoc": {
    "kind": "user",
    "methods": {},
    "notice": "DappStopPoP is a non-transferrable NFT that indicates a proof of purchase of a dApp on dAppStop.",
    "version": 1
  },
  "storageLayout": {
    "storage": [
      {
        "astId": 25,
        "contract": "contracts/DappStopPoP.sol:DappStopPoP",
        "label": "_balances",
        "offset": 0,
        "slot": "0",
        "type": "t_mapping(t_uint256,t_mapping(t_address,t_uint256))"
      },
      {
        "astId": 31,
        "contract": "contracts/DappStopPoP.sol:DappStopPoP",
        "label": "_operatorApprovals",
        "offset": 0,
        "slot": "1",
        "type": "t_mapping(t_address,t_mapping(t_address,t_bool))"
      },
      {
        "astId": 33,
        "contract": "contracts/DappStopPoP.sol:DappStopPoP",
        "label": "_uri",
        "offset": 0,
        "slot": "2",
        "type": "t_string_storage"
      },
      {
        "astId": 1766,
        "contract": "contracts/DappStopPoP.sol:DappStopPoP",
        "label": "creators",
        "offset": 0,
        "slot": "3",
        "type": "t_mapping(t_uint256,t_address)"
      },
      {
        "astId": 1770,
        "contract": "contracts/DappStopPoP.sol:DappStopPoP",
        "label": "tokenSupply",
        "offset": 0,
        "slot": "4",
        "type": "t_mapping(t_uint256,t_uint256)"
      },
      {
        "astId": 1774,
        "contract": "contracts/DappStopPoP.sol:DappStopPoP",
        "label": "customUri",
        "offset": 0,
        "slot": "5",
        "type": "t_mapping(t_uint256,t_string_storage)"
      },
      {
        "astId": 1776,
        "contract": "contracts/DappStopPoP.sol:DappStopPoP",
        "label": "name",
        "offset": 0,
        "slot": "6",
        "type": "t_string_storage"
      },
      {
        "astId": 1778,
        "contract": "contracts/DappStopPoP.sol:DappStopPoP",
        "label": "symbol",
        "offset": 0,
        "slot": "7",
        "type": "t_string_storage"
      },
      {
        "astId": 1780,
        "contract": "contracts/DappStopPoP.sol:DappStopPoP",
        "label": "REGISTRY",
        "offset": 0,
        "slot": "8",
        "type": "t_address"
      },
      {
        "astId": 1782,
        "contract": "contracts/DappStopPoP.sol:DappStopPoP",
        "label": "index",
        "offset": 0,
        "slot": "9",
        "type": "t_uint256"
      }
    ],
    "types": {
      "t_address": {
        "encoding": "inplace",
        "label": "address",
        "numberOfBytes": "20"
      },
      "t_bool": {
        "encoding": "inplace",
        "label": "bool",
        "numberOfBytes": "1"
      },
      "t_mapping(t_address,t_bool)": {
        "encoding": "mapping",
        "key": "t_address",
        "label": "mapping(address => bool)",
        "numberOfBytes": "32",
        "value": "t_bool"
      },
      "t_mapping(t_address,t_mapping(t_address,t_bool))": {
        "encoding": "mapping",
        "key": "t_address",
        "label": "mapping(address => mapping(address => bool))",
        "numberOfBytes": "32",
        "value": "t_mapping(t_address,t_bool)"
      },
      "t_mapping(t_address,t_uint256)": {
        "encoding": "mapping",
        "key": "t_address",
        "label": "mapping(address => uint256)",
        "numberOfBytes": "32",
        "value": "t_uint256"
      },
      "t_mapping(t_uint256,t_address)": {
        "encoding": "mapping",
        "key": "t_uint256",
        "label": "mapping(uint256 => address)",
        "numberOfBytes": "32",
        "value": "t_address"
      },
      "t_mapping(t_uint256,t_mapping(t_address,t_uint256))": {
        "encoding": "mapping",
        "key": "t_uint256",
        "label": "mapping(uint256 => mapping(address => uint256))",
        "numberOfBytes": "32",
        "value": "t_mapping(t_address,t_uint256)"
      },
      "t_mapping(t_uint256,t_string_storage)": {
        "encoding": "mapping",
        "key": "t_uint256",
        "label": "mapping(uint256 => string)",
        "numberOfBytes": "32",
        "value": "t_string_storage"
      },
      "t_mapping(t_uint256,t_uint256)": {
        "encoding": "mapping",
        "key": "t_uint256",
        "label": "mapping(uint256 => uint256)",
        "numberOfBytes": "32",
        "value": "t_uint256"
      },
      "t_string_storage": {
        "encoding": "bytes",
        "label": "string",
        "numberOfBytes": "32"
      },
      "t_uint256": {
        "encoding": "inplace",
        "label": "uint256",
        "numberOfBytes": "32"
      }
    }
  }
}